:020000040800F2
:10000000381C0020D5000008414400089D37000836
:1000100000000000000000000000000000000000E0
:100020000000000000000000000000006D46000815
:100030000000000000000000494500086F4600086D
:10004000E7000008E70000085D460008E700000838
:10005000E7000008E7000008E70000080D090008B5
:1000600000000000DD080008E7000008E7000008C5
:10007000E70000080538000800000000614900089A
:100080000000000000000000000000000000000070
:10009000B9470008000000003D490008E7000008DB
:1000A00000000000E7000008000000000000000061
:1000B000BD560008E7000008000000000000000036
:1000C0000348854600F0FEFA00480047255900081D
:1000D000381C00200448804704480047FEE7FEE73C
:1000E000FEE7FEE7FEE7FEE751470008C100000813
:1000F00030B50B46014600202022012409E00D46C0
:10010000D5409D4205D31D469540491B2546954047
:1001100040191546521E002DF1DC30BD70B500248B
:100120002546002801DA01244042002901DA012590
:100130004942FFF7DDFFAC4200D04042002C00D026
:10014000494270BDF0B51FB40646002082B0054696
:100150004024019100901BE0019922460F46304651
:1001600000F0FEF9049A059B801A994110D31046BD
:100170001946224600F0E4F9361A8F4101972246CB
:1001800001200021009F00F0DBF938184D4100905C
:100190002046641E0028DFDC019B00982946324679
:1001A00007B0F0BD70B502464A40D50F40004A0086
:1001B000ED0740085208002814D0002A12D0C40DC0
:1001C000D30D41020120C0055202490A520AE41A25
:1001D000091812187D34914201D3641C00E04900D3
:1001E000002C01DA002070BD0023914201D3891A4E
:1001F0000343400849000028F7D100290AD0914262
:1002000002D10121C90705E0914201D2012101E09B
:100210000121C943E005C018401900F0B2F970BDD2
:10022000F0B51FB488B00B9909980024484009998B
:10023000C00F490049080991C0070B990090490077
:1002400049080B9109990898A64608431CD00B99B8
:100250000A98084318D0099801244000420D48002C
:10026000410D099824050003000B204309900B98C9
:100270000003000B20430B9050181C49401800222B
:1002800001901446104605E0002001460DB0F0BD77
:10029000032801DA034600E003239C46C11A0AAE94
:1002A0000AE05F0008ADED5B4F00F75B7D43002780
:1002B000AA187C41491C5B1E6145F2DD410004AB7C
:1002C0005A522104120C0A43240C401C0828DFDB7C
:1002D000019802900099704601910090059B049A44
:1002E0000799069800F09BF9D0E700000DFCFFFF8E
:1002F000F0B50C465C4085B0E40FE40703944C0075
:100300000026640859009446490802460296224392
:1003100021D062460A431ED06200570D4A000E03E8
:100320002303550D012402462C492405781B1B0B81
:10033000360B401823432643614600901C46501A52
:10034000B44103D30098401C009002E0921800983A
:100350005B41002803DA0020014605B0F0BD002013
:10036000012109050746864611E064461D46141B17
:10037000B54106D36546521BB341744607430C434F
:10038000A646CD0740084908284392185B41054618
:100390000D43EAD11046184313D060461946504029
:1003A0007140084306D06046101AB34106D20122BC
:1003B000002306E000220123DB0702E00122D243F2
:1003C0005310009874460105381C6141029C039D3E
:1003D0000019694100F016F9BFE70000FD030000B5
:1003E00010B500229623114600F0D3F810BD00008E
:1003F0000EB5C217C10F5040CA0740180021054B67
:100400000293019200910A460B4600F008F903B0EE
:1004100000BD0000330400000EB505490291002123
:1004200000910A460B46019100F0F9F803B000BDB7
:100430003304000070B5CD0F4A0009030123090BF6
:100440001B0519430B4BED070024520D9A4201DAAC
:10045000002070BD074B34339A4203DC9A1A00F037
:100460007FF802E00449511888402C43F1D0404203
:1004700070BD0000FF030000CDFBFFFF4A00090331
:100480000123090B1B051943094B10B5520D9A4264
:1004900001DA002010BD064B34339A4203DC9A1A6D
:1004A00000F05EF810BD03495118884010BD0000EF
:1004B000FF030000CDFBFFFFC20FD2074000400842
:1004C0000BD0C10D0723DB01C91840020905400A02
:1004D0001143C2084007114370470020014670478E
:1004E00010B5002904DB0124E40740428C41214679
:1004F000002B04DB1C460123DB075242A3418B4245
:1005000000D1824210BD0000CB0FDB07490010B5BF
:10051000490802460A4307D00A0D07240903E401EB
:10052000090B121B002A01DC002010BDC900440F7A
:100530000C43C100E018D205801800F022F810BD6D
:1005400010B5202A04DB0146203A9140002010BD5E
:10055000914020239C1A0346E3401943904010BD6C
:1005600010B5202A04DB0846203AD040002110BDF7
:100570000B46D340D0402024A21A9140084319468C
:1005800010BD002904DA401C490001D14008400098
:10059000704770B40024050C05D11024000402D16A
:1005A000002921D01124050E01D100020834050FC5
:1005B00001D10001241D850F01D18000A41C002859
:1005C00001DB4000641C002908D020252E1B0D46AD
:1005D000F540A14000D001212943084301061B1B1F
:1005E000000ADB1D02D5002070BC7047DB0518181F
:1005F00080180029F8DA401C4900F5D170BC400889
:100600004000704710B5002B08DA0024401C6141FF
:1006100092185B411A4301D14008400010BDF0B56B
:100620001FB482B005460C0003D0084605F03CF923
:1006300002E005F039F920300246009021462846B4
:10064000FFF77EFF049B059A04460F4618431143AB
:10065000084314D0184610431BD0009840210A1AB2
:1006600018460599FFF77CFF05460E46009A059946
:100670000498FFF765FF084305D0012004E02046F9
:10068000394607B0F0BD0020C11705430E432C4387
:10069000374300990E986305401A7905E40A002251
:1006A0000C43FD0A0A3002D500200146E9E70105A6
:1006B000101969410C9C0D9D00196941FFF7A2FFBB
:1006C000DFE70000064C0125064E05E0E36807CC95
:1006D0002B430C3C98471034B442F7D3FFF7F4FC9B
:1006E0004C6100086C61000870B50546AC6AA06DED
:1006F00050210840002835D1A06D0121490208434E
:10070000A0652068C068032189020840002825D11F
:10071000206A002822D120680068082108400828A3
:100720001CD12068806804210840800800280DD171
:10073000206840680C21884321684860A06DFF2133
:100740000131884301210843A06507E0A06D202105
:100750000843A065E06D01210843E065204600F0F4
:1007600053FA03E0206D416B2846884770BD70B591
:100770000546AC6AA06D40210843A065E06D0421E8
:100780000843E065204600F041FA70BD70B50446AC
:10079000A56A284600F039FA70BD000038B5044655
:1007A000074908480068FFF7A3FC6043009002E097
:1007B0000098401E009000980028F9D138BD000034
:1007C00040420F00D800002070B504460025206884
:1007D00080688007800F012807D120680068C00763
:1007E000C00F002801D0012000E00020002839D1EE
:1007F000206880681C490840002801D1012000E0E1
:100800000020002809D1A06D10210843A065E06DEB
:1008100001210843E065012070BD20688068012146
:100820000843216888600120FFF7B8FF01F048F80D
:1008300005460EE001F044F8401B0A2809D9A06DD6
:1008400010210843A065E06D01210843E065012007
:10085000E2E720680068C007C00F01214840484017
:100860000028E7D00020D7E71700008030B5014608
:1008700009110A07120F0806040F0805030F0A20C2
:100880006043851864205843281830BD1EB50246C1
:100890000B46FF2402940194002110E0505C6C464A
:1008A000247960400090491C0A48009C045D684619
:1008B000007A444001940848009C045D0294184664
:1008C0005B1E0028EAD16C46207A0002247920437E
:1008D0001EBD0000785E0008785F000810B5024871
:1008E00000F0BAFB10BD00003C01002010B5046808
:1008F00063608468102C04D10468A2600468E1601D
:1009000003E00468A1600468E26010BD10B5202017
:1009100000F0D2FE03480068642802D90120024991
:10092000087010BD20000020B600002000210A4AF7
:1009300051610A494968012252021143074A516034
:100940001146496808221143044A51600021C20936
:10095000D2011160704700001C18002000200240E6
:100960000146086870470000002039498969FF2264
:1009700001321140914208D136494969022211439E
:10098000344A5161FF21013108433149896901220B
:1009900052021140914208D12E4949690122114366
:1009A0002C4A5161012149020843294989690122E0
:1009B00092021140914208D1264949690822114307
:1009C000244A516101218902084321498969012290
:1009D000D2021140914208D11E49496904221143B3
:1009E0001C4A51610121C902084319498969012240
:1009F00052031140914208D116494969102211430E
:100A0000144A5161012149030843114989690122AE
:100A100052041140914207D10E49496920221143E5
:100A20000C4A5161202108430949896901221204B5
:100A30001140914208D10749496940221143054AB2
:100A40005161012109040843014988617047000090
:100A5000002002401C18002070B5044600F030FF52
:100A600005460BE0601C002808D0002C04D000F0E4
:100A700027FF401BA04201D9032070BD1F48806999
:100A8000C007C00F0028EDD11C4880690221084032
:100A9000022801D11949886118488069FF21013174
:100AA0000840884223D015488069490008408842A0
:100AB0001DD01248806949000840884217D00F486D
:100AC000806949000840884211D00C48806989003B
:100AD000084088420BD009488069090108408842D3
:100AE00005D00648806949100840884203D1FFF7C5
:100AF0003BFF0120C1E70020BFE7000000200240CB
:100B000070B504460D4600BF5420005D012801D198
:100B1000022070BD01215420015500BF206880686B
:100B200004210840800800280AD0A06D2021084335
:100B3000A06500BF00215420015500BF0120E8E757
:100B40002D496868884229D02068806A296849034D
:100B5000490B08432168886228684003400B2749F5
:100B6000084001218904884208D12548806849014C
:100B70000843234988600A20FFF710FE28684003D5
:100B8000400B204908400121490488422CD11C48CF
:100B90008068490108431A49886025E02068806A16
:100BA00029684903490B8843216888622868400303
:100BB000400B1249084001218904884205D11048A0
:100BC0008068490188430E49886028684003400BCB
:100BD0000C49084001214904884205D10848806831
:100BE000490188430649886000BF0021542001550F
:100BF00000BF00208DE70000011000000000044845
:100C00000027014000000244704770477047000011
:100C100010B50446002C01D1012010BDA06D0028A4
:100C200006D1E065002154200155204600F00AF964
:100C3000A06D10210840002806D12068806804219A
:100C40000840800800280AD0A06D10210843A06544
:100C500000BF00215420015500BF0120DDE7A06D39
:100C6000FF210131884302210843A0652068806884
:100C70008007800F012807D120680068C007C00FD7
:100C8000002801D0012000E0002000283AD100BF58
:100C9000032189076068884207D04942606888421A
:100CA00003D04900606888420CD120680069800048
:100CB000800821680861206800696168084321682C
:100CC000086112E0206800698000800821680861DE
:100CD0005A4880680F21890488435849886008462B
:100CE0008068616808435549886000BF2068C06813
:100CF000182188432168C8602068C068A16808433B
:100D00002168C8604D4880680121490688434B49E5
:100D1000886008468068218F4906084347498860F3
:100D200020688068012109070840002804D1206854
:100D300080680843216888602068C068404908408E
:100D40002168C8602169E068022901D1042100E01E
:100D500000210843216A49030843216B49000843E5
:100D6000616B0843A16989030843E169C90308432A
:100D70002168C96808432168C860FF21C231A06AA0
:100D8000884207D0E16AA06A08432168C96808431D
:100D90002168C860606A012812D1206A002807D142
:100DA0002068C0680121090408432168C86007E081
:100DB000A06D20210843A065E06D01210843E06596
:100DC000206C012817D120680069FF218900884321
:100DD00021680861616CA06C0843E16C08432168DC
:100DE00009690843216808612068006901210843F6
:100DF000216808610BE020680069C007C00F002867
:100E000005D020680069400840002168086120681A
:100E10004069C008C0002168486120684069E16BF2
:100E20000843216848610020E065A06D02218843E5
:100E300001210843A0650020EFE6000000270140E3
:100E40001902FEFF10B586B004461B49206888428F
:100E500030D11A48406B4915084318494863C020EF
:100E60000190032002900020039001A905200007B3
:100E700000F032FC1248134908600020486000214D
:100E800010488160C1608021016149004161890091
:100E900081612021C161C901016200F06BFA002863
:100EA00003D06B2108A004F0FDFC00BF05482065BD
:100EB000846200BF06B010BD002401400010024053
:100EC000080002403C0100202E2E2F5372632F7326
:100ED000746D33326C3078785F68616C5F6D7370FD
:100EE0002E630000F8B504460D461646002720681C
:100EF0008068042108408008002848D100BF5420A1
:100F0000005D012801D10220F8BD012154200155C6
:100F100000BFE069012803D02046FFF755FC0746D3
:100F2000002F35D1A06D1B490840FF210131084336
:100F3000A0650020E06500BF00215420015500BFDE
:100F40001548216DC8621548216D08631448216D4C
:100F500048631C202168086020684068102108430D
:100F6000216848602068C068012108432168C86082
:100F700022681146403133462A46206D00F0C2FAFD
:100F800020688068042108432168886000E0022707
:100F90003846B9E7FEF1FFFFE90600088D070008B3
:100FA0006F07000870B5044600252520005D022863
:100FB00003D00420E063012549E0206800680E2189
:100FC0008843216808602068006840084000216864
:100FD000086020492068884201D1012026E01D498F
:100FE00014312068884201D110201FE019492831AE
:100FF0002068884201D1801518E016493C312068EC
:10100000884201D1801411E0124950312068884291
:1010100002D10120000409E00E49643120688842B1
:1010200002D10120000501E001200006094908392C
:10103000486001212520015500BF002124200155D1
:1010400000BFA06B002802D02046A16B884728462D
:1010500070BD00000800024010B50446C448006896
:10106000C34A08322168914201D1082127E0C04AD1
:101070001C322168914201D1802120E0BC4A3032EB
:101080002168914201D1C91419E0B94A443221685A
:10109000914202D10121C90311E0B54A58322168B9
:1010A000914202D10121C90409E0B14A6C322168A0
:1010B000914202D10121C90501E00121C906084080
:1010C00000284DD02068006808210840002847D03B
:1010D00020680068884321680860A54908312068B5
:1010E000884201D1082027E0A1491C3120688842AC
:1010F00001D1802020E09E4930312068884201D112
:10110000C01419E09A4944312068884202D1012074
:10111000C00311E0964958312068884202D101206D
:10112000C00409E092496C312068884202D1012054
:10113000C00501E00120C0068D494860E06B012137
:101140000843E06304212520015500BF002124202D
:10115000015500BF606B002802D02046616B8847B4
:1011600083480068824A08322168914201D10421F3
:1011700027E07F4A1C322168914201D1402120E0C2
:101180007B4A30322168914201D1091519E0784A31
:1011900044322168914202D10121890311E0744A4D
:1011A00058322168914202D10121890409E0704A34
:1011B0006C322168914202D10121890501E00121AF
:1011C0008906084000284BD02068006804210840A8
:1011D000002845D02068006820210840002805D15B
:1011E000206800680421884321680860604908314C
:1011F0002068884201D1042027E05D491C31206825
:10120000884201D1402020E059493031206888428D
:1012100001D1001519E0564944312068884202D1B5
:101220000120800311E0524958312068884202D1E0
:101230000120800409E04E496C312068884202D1C7
:101240000120800501E00120800649494860052110
:1012500025200155206B002802D02046216B8847AD
:1012600043480068424A08322168914201D1022174
:1012700027E03F4A1C322168914201D1202120E021
:101280003B4A30322168914201D1491519E0384A70
:1012900044322168914202D10121490311E0344ACC
:1012A00058322168914202D10121490409E0304AB3
:1012B0006C322168914202D10121490501E00121EE
:1012C00049060840002852D02068006802210840E2
:1012D00000284CD02068006820210840002805D153
:1012E000206800680221884321680860204908318D
:1012F0002068884201D1022027E01D491C31206866
:10130000884201D1202020E01949303120688842EC
:1013100001D1401519E0164944312068884202D1B4
:101320000120400311E0124958312068884202D15F
:101330000120400409E00E496C312068884202D146
:101340000120400501E00120400609494860E06BAA
:10135000E06301212520015500BF00212420015513
:1013600000BFE06A002802D02046E16A884710BD2D
:101370000000024001460022002901D101207047EF
:101380002520405C002802D100232420435402235E
:10139000252043540868026858480240CB68886892
:1013A00018430B6918434B6918438B691843CB6981
:1013B00018430B6A1843024308680260504B0868E0
:1013C00098420FD14E487830806A000900014C4B9A
:1013D000783398621846806A4B681843484B7833D4
:1013E000986285E0464B14330868984210D144480F
:1013F0007830806AF0239843414B783398621846DE
:10140000806A4B681B0118433D4B783398626FE04C
:101410003B4B28330868984211D139487830806AAC
:101420000F231B029843364B783398621846806A24
:101430004B681B021843324B7833986258E0304BAC
:101440003C330868984211D12D487830806A0F23C8
:101450001B0398432A4B783398621846806A4B687E
:101460001B031843264B7833986241E0244B5033DA
:101470000868984211D122487830806A0F231B04F3
:1014800098431F4B783398621846806A8B881B04F8
:1014900018431B4B783398622AE0194B6433086871
:1014A000984211D116487830806A0F231B05984363
:1014B000134B783398621846806A8B881B05184353
:1014C0000F4B7833986213E00D4B783308689842DD
:1014D0000ED1806A0F231B069843094B783398621C
:1014E0001846806A0B791B061843054B78339862BF
:1014F000012325204354002041E700000FC0FFFFD7
:1015000008000240F8B504460D4616461F4600BFC7
:101510002420005D012801D10220F8BD01212420F2
:10152000015500BF022125200155206800684008B0
:101530004000216808603B46324629462046FFF7B6
:10154000D5F92068006802210843216808602068F6
:1015500000680421084321680860206800680821A9
:101560000843216808602068006801210843216859
:1015700008600020D1E70000F8B504460E460127B8
:10158000002500BF1C48007C012801D10220F8BDC5
:1015900001201949087400BF1848FFF75DFA074693
:1015A000002F22D1401E3060656817E02846FFF703
:1015B000BDF91248FFF750FA074611484068082164
:1015C00088430F49486008464068491588430C49DC
:1015D0004860002F01D0356006E08035A068C0016A
:1015E00061684018A842E1D800BF00BF002002494E
:1015F000087400BF3846CAE71C18002050C300001A
:101600000020024003484068022108430149486025
:101610000020704700200240F8B507460C461546EA
:10162000012600BF0E48007C012801D10220F8BD30
:1016300001200B49087400BF0A48FFF70DFA06465F
:10164000002E06D10649486125600648FFF704FAD6
:10165000064600BF00200249087400BF3046E6E796
:101660001C18002050C300000D48406802210840AB
:10167000002810D00A484068C007C00F002804D0D6
:1016800008480749C8600848C86008480449086114
:101690000748086101E0012070470020FCE70000D6
:1016A00000200240EFCDAB8905040302BFAE9D8C44
:1016B000161514137047000010B50446054840691C
:1016C0002040002804D0034844612046FFF7F2FF81
:1016D00010BD00000004014070B503460022002444
:1016E0000020D5E0012696400D6835402C46002CA0
:1016F00077D04D68022D02D04D68122D15D1D50836
:10170000AE001D462035A8595507EE0E0F25B540F1
:101710000646AE4330465607F60E0D69B5402843DF
:10172000D508AD001E46203670514D68012D08D0F9
:101730004D68022D05D04D68112D02D04D68122D37
:1017400018D1986856000325B5400646AE4330468A
:101750005600CD68B54028439860586801259540EB
:101760000646AE43304610264D6835402D0995405B
:1017700028435860186856000325B5400646AE4316
:1017800030460D79AD07AD0F5600B54028431860BF
:10179000D86856000325B5400646AE43304656008D
:1017A0008D68B5402843D860012636074D6835401E
:1017B000B5426CD1394D6D6B01263543374E75639B
:1017C000374D9608B600A85995072E0F0F25B5403E
:1017D0000646AE43304605252D07AB4202D1002513
:1017E00010E054E02F4DAB4201D101250AE02E4D0F
:1017F000AB4201D1022505E02C4DAB4201D10525BC
:1018000000E006259607360FB5402843244D96087C
:10181000B600A851264D28680546A543284601264E
:1018200036044D683540B54202D105462543284669
:101830001F4D286068680546A543284601267604A2
:101840004D683540B54202D1054625432846184D1E
:101850006860A8680546A5432846012636054D68F8
:101860003540B54202D1054625432846104DA860B3
:10187000E8680546A5432846012676054D683540AB
:10188000B54202D1054625432846094DE860521C61
:101890000D68D540002D00D024E770BD0010024037
:1018A000080001400004005000080050001C0050D7
:1018B00000040140002A01D0816100E0816270478C
:1018C0000148006870470000D400002070B504464D
:1018D000002C01D1012070BD144821680860144813
:1018E000216808602168606848602168A068886095
:1018F000FFF7E6FF054606E0FFF7E2FF401B302852
:1019000001D90320E7E72068C0680028F4D12068E7
:101910000169E068814203D02168E068086102E063
:101920000448216808600020D5E70000CCCC000006
:1019300055550000AAAA0000014602480A68106036
:1019400000207047AAAA000002480068401C014914
:1019500008607047D400002010B506480068402198
:10196000084304490860002000F006F800F0DCF8A5
:10197000002010BD0020024070B504467D21C90042
:1019800006480068FEF7B4FB054601F057FC00224C
:101990002146501E00F0F4F8002070BDD800002051
:1019A0007047704770477047014602222E2042540C
:1019B00011488068120790430F4A906010460068F3
:1019C000D20490430C4A1060086800694008400047
:1019D0000A68106108688068102290430A68906065
:1019E00008688068022290430A68906001222E20D5
:1019F00042540020704700000004014070477047C7
:101A000010B5044620680068C007C00F0121484097
:101A1000484000280CD02068806808404840484072
:101A2000002805D00120216848602046FFF7BAFF52
:101A30002068006802210840400800280BD0206878
:101A4000806808404008002805D0022021684860CE
:101A50002046FFF7A5FF20680068042108408008A1
:101A600000280BD02068806808408008002805D036
:101A7000042021684860204600F054F8206800687F
:101A800008210840C00800280BD020688068084062
:101A9000C008002805D00820216848602046FFF7CC
:101AA00082FF2068006810210840000900280BD040
:101AB0002068806808400009002805D010202168AF
:101AC00048602046FFF76DFF20680068202108402D
:101AD000400900280BD02068806808404009002891
:101AE00005D02020216848602046FFF788FF206845
:101AF000006840210840800900280BD020688068D9
:101B000008408009002805D0402021684860204610
:101B1000FFF774FF012040070149486110BD000034
:101B2000000401407047000010B50E48406B0121D1
:101B300008430C4948630846806B09040843094977
:101B4000886300221146501F00F01AF80022114647
:101B5000901E00F015F800221146501E00F010F8FB
:101B600010BD00000010024000BFC206D20E0121CD
:101B70009140024A116000BF7047000000E100E0A0
:101B800070B504460D4616462946204602F0A0FCD4
:101B900070BD0000F8B50546002600270020009023
:101BA0000024022D4DD0042D7AD0082D73D0202D85
:101BB00072D1694806690069032109040840044696
:101BC000E802844206D1C0113040002802D06010E3
:101BD000009035E001204004844206D102203040CC
:101BE000002802D05D4800902AE0032000048442CF
:101BF00024D1594840380068012149040840002890
:101C00001CD0554840380068210108400746012093
:101C10000005381A0BD001210905401A04D0401ADA
:101C200008D14F48009008E04E48009005E04E482B
:101C3000009002E04D48009000BF01E000200090BD
:101C400087E04548C0680C2108400446002C03D1B9
:101C500000F09AFA009022E0082C09D13E48403862
:101C6000006804210840002802D04148009016E096
:101C7000042C03D100F0ACFA009010E00C2C0CD135
:101C800035480069012149020840002805D0880133
:101C9000009004E004E036E05AE00020009058E0B4
:101CA0002D48C0680321890208400446002C03D156
:101CB00000F06AFA009025E00120C002844209D1B8
:101CC00025484038006804210840002802D02848F0
:101CD000009017E001208002844203D100F078FADE
:101CE00000900FE003208002844209D11A48006965
:101CF000012149020840002802D08801009001E03B
:101D00000020009025E01448C06803210903084022
:101D10000446002C03D100F037FA009017E00120B0
:101D20004003844209D10C4840380068042108402F
:101D3000002802D00E48009009E0012000038442F0
:101D400003D100F045FA009001E00020009000E08F
:101D500000BF00BF0098F8BD40100240889000000E
:101D600020A1070040420F0080841E0000093D00B2
:101D70000024F400F8B50446002600252021206840
:101D8000084020287CD120680840202800D100BFCE
:101D900000277948806B012109070840002805D1F8
:101DA0007548806B0843744988630127734800684D
:101DB000FF2101310840002816D17048006808430F
:101DC0006E490860FFF77CFD064606E0FFF778FDE8
:101DD000801B642801D90320F8BD68480068FF21F2
:101DE000013108400028F1D063480068032109054B
:101DF0000840054660680840A8420DD00911606897
:101E00000840884208D15C48006801214904084024
:101E1000002801D00120DFE7574840300069032146
:101E2000090408400546002D3CD060680840A842DF
:101E300038D0202120680840202833D14E48403037
:101E4000006903210904884305464B484030006976
:101E50000121C90408434849403108610846006926
:101E60000121C9048843444940310861084605619D
:101E700080152840002815D0FFF722FD064608E00F
:101E800039E0FFF71DFD801B3D49884201D9032041
:101E9000A2E7394840300069012149020840400A60
:101EA0000028EED000BF00BF03210904606808408D
:101EB00088420AD13048006809018843032212058C
:101EC0006168114008432C49086000BF2A4840302F
:101ED0000069032212046168114008432649403119
:101EE000086100BF012F05D12348806B8905884315
:101EF0002149886300BF022120680840022809D1D7
:101F00001D484030C0680C218843A16808431A4925
:101F10004031C86004212068084004280AD11648CE
:101F20004030C068032189028843E16808431249B0
:101F30004031C86008212068084008280AD10E48AE
:101F40004030C068032109038843216908430A49D6
:101F50004031C86080212068084080280AD10648A6
:101F60004030C068032189048843616908430249FD
:101F70004031C86000202FE7001002400070004090
:101F80008813000070B504460D46002676480068A8
:101F9000C007C00FA8420ED2734800684008400036
:101FA00028437149086008460068C007C00FA8426E
:101FB00001D0012070BD022120680840022807D10D
:101FC0006A48C068F0218843A16808436749C8602F
:101FD0002078C007C00F00284CD06068022809D1C3
:101FE00062480068012149040840400C002824D1BF
:101FF0000120DFE76068032809D15C4800680121FF
:1020000049060840400E002817D10120D2E7606839
:10201000012808D15548006804210840800800289C
:102020000BD10120C6E75148006801214902084050
:10203000400A002801D10120BCE74C48C068800854
:102040008000616808434949C860FFF739FC0646CB
:10205000606802280FD107E0FFF732FC801B44497B
:10206000884201D90320A5E74048C0680C210840F8
:102070000828F1D134E0606803280FD107E0FFF7AA
:102080001FFC801B3A49884201D9032092E7374858
:10209000C0680C2108400C28F1D121E060680128BB
:1020A0000FD107E0FFF70CFC801B3149884201D9B2
:1020B00003207FE72D48C0680C2108400428F1D197
:1020C0000EE007E0FFF7FCFB801B2949884201D99D
:1020D00003206FE72548C0680C2108400028F1D193
:1020E00021480068C007C00FA8420ED91E480068EA
:1020F0004008400028431C49086008460068C007A3
:10210000C00FA84201D0012054E7042120680840F4
:10211000042808D11548C068072109028843E168EE
:1021200008431249C860082120680840082809D1DE
:102130000E48C0680721C90288432169C9000843C5
:102140000A49C86000F044F80849C968F022114003
:102150000909084A515CC840074908600020FFF798
:102160000BFC002026E70000002002400010024087
:102170008813000028610008D8000020014800688A
:1021800070470000D800002000B5FFF7F7FF0549B1
:10219000C968072212021140090A034A515CC8406B
:1021A00000BD0000001002403861000800B5FFF7D4
:1021B000E5FF0549C9680722D2021140C90A034A4E
:1021C000515CC84000BD00000010024038610008AA
:1021D000FEB5002500260027002400200190009075
:1021E0002F48C5680C202840002847D0042804D078
:1021F00008280ED00C2840D10EE029480068102194
:102200000840002802D02748009001E026480090AE
:1022100042E0264800903FE00F2080042840800CD8
:1022200023490E5C032080052840800D471C1C4874
:10223000C068012109040840002807D01B497143E8
:1022400008463946FDF754FF044614E01448006878
:1022500010210840002807D012497143084639462A
:10226000FDF746FF044606E00F497143084639462C
:10227000FDF73EFF044600940EE000BF08484068AA
:10228000072149030840400B01900198401C01219F
:102290008140C803009000BF00BF0098FEBD000051
:1022A0000010024000093D000024F40000127A00F2
:1022B00040610008F8B5044600252078C007C00F2B
:1022C00000287DD0FE48C0680C21084008280BD0AB
:1022D000FB48C06808400C2813D1F948C0680121A8
:1022E0000904084088420CD1F548006801214904DE
:1022F0000840400C002863D06068002860D10120AD
:10230000F8BD00BF012109046068884205D1EC488E
:1023100000680843EA49086027E00521090460686D
:1023200088420ED1E6480068012189040843E44947
:10233000086008460068012109040843E049086074
:1023400013E0DF480068012109048843DC49086084
:1023500008460068012109040840009000BFD848E1
:10236000006889008843D649086000BF606800287B
:1023700013D0FFF7A5FA054606E0FFF7A1FA401BC8
:10238000642801D90320BBE7CD4800680121490436
:102390000840400C0028F0D012E0FFF791FA054603
:1023A00006E0FFF78DFA401B642801D90320A7E758
:1023B000C3480068012149040840400C0028F0D1BE
:1023C000022120680840022868D1BD48C0680C215D
:1023D000084004280BD0BA48C06808400C281DD11A
:1023E000B748C068012109040840002816D1B44844
:1023F0000068042108408008002804D0E068012813
:1024000001D001207CE7AE4840681F2109028843C3
:10241000216909020843AA4948603FE0E0680028B2
:1024200024D0A748006809218843E1680843A449EB
:102430000860FFF745FA054606E0FFF741FA401B42
:10244000022801D903205BE79D4800680421084069
:1024500080080028F1D09A4840681F21090288436B
:102460002169090208439649486017E094480068CA
:102470004008400092490860FFF722FA054606E04E
:10248000FFF71EFA401B022801D9032038E78C48C9
:1024900000680421084080080028F1D1102120683C
:1024A0000840102860D18648C0680C2108400028E8
:1024B0005BD183480068012149020840400A002896
:1024C00004D0A069002801D1012019E77C48216AC5
:1024D0004068072252031040814219D9206A02F055
:1024E00035F8002801D001200AE775484068072127
:1024F00049038843216A0843714948600846406897
:102500000002000A217F090608436D49486018E06F
:102510006B484068072149038843216A084368499A
:102520004860084640680002000A217F0906084307
:1025300063494860206A02F009F8002801D00120B0
:10254000DEE6206A400B401C01218140C8035C4943
:10255000C968F022114009095A4A515CC8405A49D9
:1025600008600020FFF708FA49E0A06900282CD095
:1025700053480068FF210131084351490860FFF7C3
:102580009FF9054606E0FFF79BF9401B022801D999
:102590000320B5E64A480068012149020840400A84
:1025A0000028F0D046484068072149038843216A43
:1025B000084343494860084640680002000A217FFA
:1025C000090608433E49486019E03D480068FF217C
:1025D000013188433A490860FFF772F9054606E081
:1025E000FFF76EF9401B022801D9032088E6344822
:1025F0000068012149020840400A0028F0D1082162
:1026000020680840082839D1606900281BD02C4870
:102610004030006901210843294940310861FFF732
:102620004FF9054606E0FFF74BF9401B022801D998
:10263000032065E622484030006902210840400836
:102640000028F0D01AE01E484030006940084000E1
:102650001B4940310861FFF733F9054606E0FFF7F3
:102660002FF9401B022801D9032049E614484030C5
:1026700000690221084040080028F0D104212068A8
:102680000840042877D100260D48806B8906084051
:10269000002805D10A48806B084309498863012650
:1026A0000A480068FF210131084000281ED1074870
:1026B0000068084305490860FFF702F905460EE087
:1026C0000010024028610008D8000020007000407F
:1026D000FFF7F6F8401B642801D9032010E67A487A
:1026E0000068FF21013108400028F1D000BFFF2120
:1026F0000131A068884205D17448006908437349D4
:10270000086130E0A06800280DD170480069FF2101
:10271000013188436D4908610846006909158843FD
:102720006A4908611FE005210902A06888420DD1AD
:102730006648006901218902084364490861084626
:10274000006989150843614908610CE05F48006928
:10275000FF21013188435D49086108460069091578
:1027600088435A49086100BFA068002815D0FFF7C8
:10277000A7F8054608E02FE0FFF7A2F8401B5449F0
:10278000884201D90320BBE5504800690121490274
:102790000840400A0028EFD013E0FFF791F8054603
:1027A00007E0FFF78DF8401B4949884201D9032013
:1027B000A6E546480069012149020840400A002870
:1027C000EFD1012E07D141484038806B3107884353
:1027D0003E494039886300BF606A002872D03B4898
:1027E0004038C0680C2108400C2869D0606A022873
:1027F00048D13648403800680121090688433349EA
:1028000040390860FFF75CF8054606E0FFF758F826
:10281000401B022801D9032072E52C48403800688B
:10282000012149060840400E0028EFD1E16AA06A64
:102830000843216B084325494039C968FD22120429
:102840009143084321494039C86008460068012186
:10285000090608431D4940390860FFF731F805466D
:1028600006E0FFF72DF8401B022801D9032047E5B9
:10287000164840380068012149060840400E0028EB
:10288000EFD01FE011484038006801210906884355
:102890000E4940390860FFF713F8054606E0FFF7D8
:1028A0000FF8401B022801D9032029E507484038CA
:1028B0000068012149060840400E0028EFD101E0E0
:1028C00001201DE500201BE5007000404010024083
:1028D00088130000FFB581B004460D461646002758
:1028E000002C02D1012005B0F0BD6920005D002858
:1028F00005D1002168200155204600F0A9FE2421C1
:10290000692001552068006840084000216808607F
:10291000606A002802D0204602F06CFB204602F0DC
:1029200091FC012800D1DEE720688068012189033D
:10293000084321688860206880680121C9038843B2
:1029400028432168886077050498000407432068BD
:10295000006807490840384321680860206800681B
:102960000121084321680860204602F0BBFBBAE75A
:10297000FFFF00FC02460023106803465033880026
:10298000C3181868704710B50023046823465033F5
:102990008C00E3181A6010BD70B50446002500BF16
:1029A0002020005D012801D1022070BD01212020DE
:1029B000015500BF02212120015500BFCA20216816
:1029C000486253202168486200BF20688068012166
:1029D0008902884321688860206880680121890312
:1029E000884321688860FEF76BFF054615E0FEF717
:1029F00067FF401B7D21C90088420ED900BFFF2020
:102A00002168486200BF03212120015500BF002139
:102A10002020015500BF0320C7E72068C0680421BB
:102A2000084080080028E2D000BFFF2021684862EB
:102A300000BF01212120015500BF002120200155A8
:102A400000BF0020B1E7F8B504460D461646002742
:102A500000BF2020005D012801D10220F8BD012126
:102A60002020015500BF02212120015500BFCA20AE
:102A70002168486253202168486200BF206880684E
:102A8000012189020840002820D0FEF719FF0746DF
:102A900015E0FEF715FFC01B7D21C90088420ED945
:102AA00000BFFF202168486200BF0321212001559B
:102AB00000BF00212020015500BF0320CEE7206881
:102AC000C0680421084080080028E2D1206880689E
:102AD00001218902884321688860FEF7F1FE0746DC
:102AE00015E0FEF7EDFEC01B7D21C90088420ED91E
:102AF00000BFFF202168486200BF0321212001554B
:102B000000BF00212020015500BF0320A6E7206858
:102B1000C0680421084080080028E2D0206880684E
:102B2000C008C00021688860206880683043216840
:102B30008860206845612068806801218902084317
:102B40002168886000BFFF202168486200BF012122
:102B50002120015500BF00212020015500BF002089
:102B60007CE70000F8B504460D461646002700BF76
:102B70002020005D012801D10220F8BD0121202084
:102B8000015500BF02212120015500BFCA20216844
:102B9000486253202168486200BF20688068012194
:102BA00089020840002820D0FEF78AFE074615E07B
:102BB000FEF786FEC01B7D21C90088420ED900BFEA
:102BC000FF202168486200BF03212120015500BF7A
:102BD00000212020015500BF0320CEE72068C068F7
:102BE0000421084080080028E2D120688068012183
:102BF00089028843216888602068C0688021084075
:102C00002E4908432168C860FEF75AFE074615E0C2
:102C1000FEF756FEC01B7D21C90088420ED900BFB9
:102C2000FF202168486200BF03212120015500BF19
:102C300000212020015500BF03209EE72068C068C6
:102C40000421084080080028E2D0206845612068FF
:102C50008068C008C00021688860206880683043B0
:102C60002168886016480068012109050843144955
:102C700008600846806801210905084310498860FA
:102C800020688068012189030843216888602068E2
:102C900080680121890208432168886000BFFF2005
:102CA0002168486200BF01212120015500BF002199
:102CB0002020015500BF00205FE700007FFBFFFFE1
:102CC0000004014010B504462046FFF765FE1F488A
:102CD0000078002833D01E48007800280FD1002249
:102CE000012189031B48FEF7E5FD01201849087002
:102CF0000022194801882046FFF734FF25E01448D8
:102D0000007801280ED1012281031248FEF7D2FD7E
:102D100002200F4908700022104801882046FFF762
:102D200021FF12E00A48007802280ED10022410358
:102D30000848FEF7BFFD00200549087005E00022A5
:102D4000012189030348FEF7B5FD10BD0C000020EA
:102D50000D000020000800506E00002070000020D0
:102D600010B504462068C068012189020840800A25
:102D700000280AD02046FFF7A5FF2068C068802100
:102D80000840064908432168C8600120000504493D
:102D9000486101212120015510BD00007FFBFFFF8C
:102DA00000040140F0B506460C4617460025306881
:102DB0004068124908400546FF2000042840000CE6
:102DC000E0701F2000022840000A6070A806800EF4
:102DD000A070072040032840400B2070002F0BD12B
:102DE000E07801F0FFFBE070607801F0FBFB6070C1
:102DF000A07801F0F7FBA0700020F0BD3FFFFF00BE
:102E0000F0B505460C46174600262868806A6060C3
:102E1000286800694004400CA060286800681249D6
:102E2000084006463F2000043040000C20707F2000
:102E300000023040000A60707006400EA070012051
:102E400080053040000CE070002F0BD1207801F09D
:102E5000C9FB2070607801F0C5FB6070A07801F0BC
:102E6000C1FBA0700020F0BD7F7F7F0010B504463D
:102E7000002C01D1012010BD2120005D002805D1CA
:102E8000002120200155204600F054F80221212085
:102E9000015500BFCA20216848625320216848625A
:102EA00000BF204601F0B8FB002809D000BFFF207A
:102EB0002168486200BF0421212001550120DAE782
:102EC000206880681A490840216888602169606824
:102ED0000843A1690843216889680843216888601C
:102EE0002168E068086120680069218909040843B5
:102EF000216808612068C068802188432168C86013
:102F00002068C06C800880002168C8646169E0693D
:102F100008432168C96C08432168C86400BFFF20CA
:102F20002168486200BF0121212001550020A2E74D
:102F3000BFFF8FFF054A0168914206D10449096924
:102F4000012292041143024A116170470028004097
:102F500040100240F8B504460D461646002700BF53
:102F60002020005D012801D10220F8BD0121202090
:102F7000015500BF022121200155002E09D168789A
:102F800010210840102804D16878EF2108400A3049
:102F90006870002E11D1E87801F031FB03046878E5
:102FA00001F02DFB00020343A87801F028FB034346
:102FB0002878400303431F4612E0687801F012FBB3
:102FC0000746A87801F00EFB0746E8780004697808
:102FD00009020843A97808432978490308430746AA
:102FE00000BFCA202168486253202168486200BFA0
:102FF000204601F011FB00280ED000BFFF20216801
:10300000486200BF04212120015500BF002120207B
:10301000015500BF0120A8E71948384021684860E1
:103020002068C068802188432168C8602068806863
:1030300020210840002813D1204600F0CDF80028B8
:103040000ED000BFFF202168486200BF042121206C
:10305000015500BF00212020015500BF012084E759
:1030600000BFFF202168486200BF012121200155D7
:1030700000BF00212020015500BF002075E700009F
:103080003FFFFF00F8B504460D461646002700BF77
:103090002020005D012801D10220F8BD012120205F
:1030A000015500BF022121200155002E1BD12068AF
:1030B000806840210840002800D002E00020E8702D
:1030C00000BF287801F09BFA0304687801F097FAB2
:1030D00000020343A87801F092FA0343E878000461
:1030E00003431F4618E020688068402108400028FC
:1030F00004D0287801F076FA074602E00020E87054
:1031000000BF28780004697809020843A9780843B9
:10311000E97809040843074600BFCA2021684862CD
:1031200053202168486200BF204601F075FA00284C
:103130000ED000BFFF202168486200BF042121207B
:10314000015500BF00212020015500BF0120A4E748
:10315000204838402168086020688068012189047F
:103160008843216888602969E8680843216889687C
:103170000843216888602068C068802188432168EE
:10318000C8602068806820210840002813D12046AC
:1031900000F022F800280ED000BFFF20216848620E
:1031A00000BF04212120015500BF0021202001552E
:1031B00000BF012071E700BFFF202168486200BF07
:1031C00001212120015500BF00212020015500BF11
:1031D000002062E77F7F7F0070B5044600252068ED
:1031E000C068A02188432168C860FEF769FB0546D6
:1031F00008E0FEF765FB401B7D21C900884201D92C
:10320000032070BD2068C068202108400028F0D04D
:103210000020F6E7042806D1064909690422114373
:10322000044A116105E00349096904229143014AF6
:103230001161704700E000E07047000070B504467F
:103240002546681E0949884201D901200CE0681E04
:10325000074948610321081F01F03AF90020044999
:10326000886107200861002070BD0000FFFFFF009B
:1032700000E000E010B5FFF7DFFF10BD10B5044619
:10328000002C01D1012010BD3520005D002805D1A2
:10329000002134200155204600F00CF80221352091
:1032A0000155211D206801F06BFE012135200155DB
:1032B0000020E8E7012292070168914206D10E49F9
:1032C000896B012211430C4A916314E00B4A016897
:1032D000914206D10849496B04221143064A5163C1
:1032E00009E0074A0168914205D10349496B202250
:1032F0001143014A51637047001002400008014029
:1033000000140140704710B504462068006902218E
:103310000840400800281CD02068C06808404008C9
:10332000002816D0481F21680861012020752068F8
:1033300080698007800F002803D02046FFF7E2FF56
:1033400005E0204600F09DF8204600F09BF80020A4
:1033500020752068006904210840800800281DD0DD
:103360002068C06808408008002817D0C84321683A
:103370000861022020752068806903210902084045
:10338000002803D02046FFF7BDFF05E0204600F0EF
:1033900078F8204600F076F8002020752068006953
:1033A00008210840C00800281CD02068C0680840D8
:1033B000C008002816D0C843216808610420207581
:1033C0002068C0698007800F002803D02046FFF7DF
:1033D00099FF05E0204600F054F8204600F052F82E
:1033E000002020752068006910210840000900288D
:1033F0001DD02068C06808400009002817D0C843C5
:1034000021680861082020752068C069032109022D
:103410000840002803D02046FFF774FF05E020464F
:1034200000F02FF8204600F02DF8002020752068CD
:103430000069C007C00F01214840484000280CD057
:103440002068C068084048404840002805D0C81E91
:1034500021680861204600F016F8206800694021C4
:103460000840800900280BD02068C0680840800907
:10347000002805D0C84321680861204600F004F800
:1034800010BD704770477047704770477047000025
:10349000F8B504462068C569206806682807000F4B
:1034A0000090009800280BD120202840002807D049
:1034B00020203040002803D0204601F07AFEF8BDDD
:1034C00020688768009800287ED0F807C00F002881
:1034D00004D1FF20213030400028F5D0E807C00F8C
:1034E00000280BD0FF2001303040002806D00120FA
:1034F00021680862E06E01210843E066022028404E
:1035000000280AD0F807C00F002806D00220216842
:103510000862E06E04210843E06604202840002889
:103520000AD0F807C00F002806D0042021680862DE
:10353000E06E02210843E0660820284000280ED0F3
:1035400020203040002803D1F807C00F002806D003
:10355000082021680862E06E08210843E066E06EFA
:10356000002841D020202840002806D020203040CC
:10357000002802D0204601F01CFEE06E0821084021
:10358000002805D12068806840210840002826D006
:10359000204601F0EDFD20688068402108400028A9
:1035A00019D020688068884321688860606E002890
:1035B0000DD02648616E8863606EFDF7F3FC00282D
:1035C00012D0606E816B00E00FE088470CE020466F
:1035D000FFF75CFF08E02046FFF758FF04E02046B5
:1035E000FFF754FF0020E06669E70120000528404E
:1035F000002811D001208005384000280CD001207F
:103600000005216808622021692001556A200155C2
:103610002046FFF73AFF52E780202840002807D0D5
:1036200080203040002803D0204601F0D5FF46E737
:1036300040202840002807D040203040002803D0F8
:10364000204601F0A6FD3AE700BF38E759510008CF
:1036500010B586B004461249206888421DD1114831
:10366000806B0121490408430E4988630E200190B4
:103670000220029000200390032004900420059073
:1036800001A905200007FEF727F8002211461C209B
:10369000FEF776FA1C20FEF767FA06B010BD0000B0
:1036A00000440040001002407047FEB504460D463D
:1036B00016461F46002001906920005D20286AD12F
:1036C000002D01D0002E01D10120FEBD01210903F2
:1036D000A068884208D12069002805D1E807C00FFA
:1036E000002801D00120F0E700BF6820005D01281C
:1036F00001D10220E9E701216820015500BF002027
:10370000E066212169200155FEF7DAF8019050208A
:1037100006535220065325E05220005B401E81B222
:10372000522001530097002280212046019B01F086
:103730008CFF002801D00320C7E701210903A068FE
:1037400088420BD12069002808D10295029D288863
:10375000C005C00D21688862AD1C03E028786D1C8F
:10376000216888625220005B0028D5D10097002292
:1037700040212046019B01F068FF002801D0032072
:10378000A3E720216920015500BF002168200155D1
:1037900000BF002099E7022097E7704700BFFEE7CF
:1037A000FEB50446002506E00A212046FCF7A0FCF1
:1037B0000446681CC5B27D21C9002046FCF798FC70
:1037C0000028F1D1A0B201900A210198FCF7A6FCD3
:1037D000CEB20A210198FCF7A1FC0A210090FCF767
:1037E0009DFCCFB264210198FCF798FCC0B2029016
:1037F000029800033902401831014018401980B284
:10380000FEBD000010B50348FEF7FAF80148FEF7C8
:10381000CBF810BD20020020034A1070034A11703B
:103820000022034B1A707047080000200C00002093
:103830000900002010B50446002C04D100210A2004
:10384000FFF7EAFF19E010202043002804D00021F0
:103850000120FFF7E1FF10E002202043002804D000
:1038600001210420FFF7D8FF07E0012020430028B2
:1038700003D000210420FFF7CFFF10BD00B599B0A1
:103880000020179000211691159114911391129117
:10389000119110910F910E90FE48007800287DD074
:1038A000FD480089FD490988081A0D90FCF7A0FD24
:1038B000FB4A03C2F8480089FA490988091A0846F0
:1038C0000D91FCF795FDF84A03C200221346F44916
:1038D00003C9FCF705FE04D20021F14A11605160D2
:1038E00016E0F2480088FCF77BFD0990FCF7E4FD48
:1038F0000022EF4B0D910C90E94903C9FCF790FCB5
:103900000B910A900D9B0C9AFCF7F2FCE44A03C25F
:1039100000221346E44903C9FCF7E2FD04D200216A
:10392000E14A1160516016E0E0480088FCF758FD5C
:103930000990FCF7C1FD0022DD4B0D910C90DA4996
:1039400003C9FCF76DFC0B910A900D9B0C9AFCF7D8
:10395000CFFCD54A03C2D748007800287ED0CE4895
:10396000018A08460D91FCF781FF1290CA48018A2E
:1039700008460D91FCF77AFF1190C748007C0107BB
:10398000090F1791C448007C0107090F1691C2481E
:10399000018C08460691FCF723FD00E0F3E0079058
:1039A000FCF78AFD0B910A901298FCF719FD039021
:1039B000FCF782FD07910690B94903C9FCF7A4FD05
:1039C0000190FCF779FD039102901798C000BA4965
:1039D000081803C801910090039B029AFCF720FC91
:1039E00005910490079B069AFCF71AFC0991089030
:1039F0000B9B0A9AFCF77CFC0D910C90FCF71AFDCE
:103A00001090A548008C0690FCF7EAFC0790FCF7A4
:103A100053FD0B910A901198FCF7E2FC0390FCF720
:103A20004BFD07910690A04903C9FCF76DFD01907D
:103A3000FCF742FD039102901698C0009E490818B9
:103A400003C801910090039B029AFCF7E9FB0591E2
:103A50000490079B069AFCF7E3FB00E00BE009915A
:103A600008900B9B0A9AFCF743FC0D910C90FCF715
:103A7000E1FC0F900DE2884880890D90FCF7F6FE7E
:103A800012908548818908460D91FCF7EFFE119050
:103A90008148007B0107090F17917F48007B0107D0
:103AA000090F16917C48818B08460691FCF798FC1B
:103AB0000790FCF701FD0B910A901298FCF790FC1F
:103AC0000390FCF7F9FC07910690754903C9FCF7D0
:103AD0001BFD0190FCF7F0FC039102901798C000C9
:103AE0007549081803C801910090039B029AFCF7DE
:103AF00097FB05910490079B069AFCF791FB0991AF
:103B000008900B9B0A9AFCF7F3FB0D910C90FCF7C5
:103B100091FC10906048818B08460691FCF760FC90
:103B20000790FCF7C9FC0B910A901198FCF758FC20
:103B30000390FCF7C1FC079106905B4903C9FCF7B1
:103B4000E3FC0190FCF7B8FC039102901698C000CA
:103B50005949081803C801910090039B029AFCF789
:103B60005FFB05910490079B069AFCF759FB0991AE
:103B700008900B9B0A9AFCF7BBFB0D910C90FCF78D
:103B800059FC0F9085E1444840894C490988081A3E
:103B90000D90FCF72DFC424A03C23F480089414981
:103BA0000988091A08460D91FCF722FC3E4A03C217
:103BB000002213463A4903C9FCF792FC04D20021C3
:103BC000374A1160516016E038480088FCF708FC5D
:103BD0000990FCF771FC0022354B0D910C90304997
:103BE00003C9FCF71DFB0B910A900D9B0C9AFCF787
:103BF0007FFB2B4A03C2002213462B4903C9FCF763
:103C00006FFC04D20021284A1160516016E0274859
:103C10000088FCF7E5FB0990FCF74EFC0022244BE2
:103C20000D910C90204903C9FCF7FAFA0B910A9008
:103C30000D9B0C9AFCF75CFB1B4A03C21D480078E5
:103C400000287DD01448408A0D90FCF70FFE12909A
:103C50001148018A08460D91FCF708FE11900E48A4
:103C6000807C0107090F17910B48007C0107090FA1
:103C700016910948418C08460691FCF7B1FB079064
:103C8000FCF71AFC0B910A901298FCF7A9FB039021
:103C900016E000008900002084030020640000205A
:103CA000800000206A00002078000020A000002092
:103CB00000809A4088000020A8600008660000206C
:103CC000FCF7FAFB07910690BC4903C9FCF71CFC02
:103CD0000190FCF7F1FB039102901798C000B849DE
:103CE000091803C901910090039B029AFCF798FA06
:103CF00005910490079B069AFCF792FA09910890A7
:103D00000B9B0A9AFCF7F4FA0D910C90FCF792FBCE
:103D10001090AC48008C0690FCF762FB0790FCF713
:103D2000CBFB0B910A901198FCF75AFB0390FCF720
:103D3000C3FB07910690A44903C9FCF7E5FB00E02B
:103D400021E00190FCF7B8FB039102901698C000A7
:103D50009B49091803C901910090039B029AFCF743
:103D60005FFA05910490079B069AFCF759FA0991AE
:103D700008900B9B0A9AFCF7BBFA0D910C90FCF78C
:103D800059FB0F9085E08F48C0890D90FCF76EFDC0
:103D900012908C48818908460D91FCF767FD1190BF
:103DA0008848807B0107090F17918648007B01072F
:103DB000090F16918348C18B08460691FCF710FB4A
:103DC0000790FCF779FB0B910A901298FCF708FB1F
:103DD0000390FCF771FB07910690784903C9FCF743
:103DE00093FB0190FCF768FB039102901798C000C9
:103DF0007349091803C901910090039B029AFCF7CB
:103E00000FFA05910490079B069AFCF709FA0991AD
:103E100008900B9B0A9AFCF76BFA0D910C90FCF73B
:103E200009FB10906748808B0690FCF7D9FA079041
:103E3000FCF742FB0B910A901198FCF7D1FA039022
:103E4000FCF73AFB079106905F4903C9FCF75CFB5E
:103E50000190FCF731FB039102901698C00058497D
:103E6000091803C901910090039B029AFCF7D8F945
:103E700005910490079B069AFCF7D2F909910890E6
:103E80000B9B0A9AFCF734FA0D910C90FCF7D2FACE
:103E90000F901098FFF784FC4C4908800F98FFF7AB
:103EA0007FFC4A4948804A48006800287DD008467F
:103EB0000088002879DD4348808A0D90FCF7D6FC05
:103EC000444908803F48007D0007000F42490870C0
:103ED0003C48818C08460D91FCF7C8FC3F4908809E
:103EE0003848808C0007000F3D490870384800684A
:103EF000FCF776FA0990FCF7DFFA02460B460B91C5
:103F00000A9000203749FCF7F3F90D910C90FCF76B
:103F100091FA3549088031480088FCF761FA06902B
:103F20002C480088FCF75CFA05900699FCF73AF9F2
:103F30000790FCF7C1FA0B910A9029480078C0005D
:103F40001F49081803C80391029023480078C00055
:103F50001B49091803C901910090039B029AFCF7C1
:103F6000C7F90791069020480088FCF755FA05919B
:103F70000490079B069AFCF753F9099108900B9B54
:103F80000A9AFCF74DF90D910C90FCF777FA0E9018
:103F900015480088FFF704FC134908800E98FFF7C6
:103FA000FFFB0A49888003E0FFE70020074988807B
:103FB00000200E49088019B000BD000080000020DC
:103FC000A86000088403002078000020D4030020AB
:103FD00024000020D0000020CE000020D2000020CD
:103FE000CF000020D76D7541CC0000206A00002072
:103FF0001CB52B482B49086000212A480164012088
:104000008007284948600021264881600721C16354
:10401000012101610021C160012101620021416291
:10402000C162FF21C231816201210163042141612A
:104030000021416381618163C161FCF7E9FD0028D2
:1040400003D0194919A001F02DFC1C4800908001F3
:10405000019069461348FCF753FD002804D012492B
:10406000083112A001F01EFC1548009069460D4869
:10407000FCF746FD002804D00B4910310BA001F0DD
:1040800011FC1048009069460648FCF739FD0028ED
:1040900004D00549163105A001F004FC1CBD000048
:1040A00000240140DC000020850400002E2E2F5348
:1040B00072632F6D61696E2E63000000400000186E
:1040C0008000001C0000024408B500BF0948006BD6
:1040D00001210843074908630846006BC007C00F69
:1040E000009000BF00BF002201210920FDF748FD1C
:1040F00008BD00000010024000B587B000BF2A488C
:10410000C06A042108432849C8620846C06A0421DD
:104110000840019000BF00BF00BF2348C06A0121D2
:1041200008432149C8620846C06AC007C00F019011
:1041300000BF00BF0022012189031C48FDF7BAFB24
:104140000022102105200007FDF7B4FB01208003A9
:1041500002900120039000200490059002A91348CA
:10416000FDF7BAFA1020029001200390002004907D
:10417000059002A905200007FDF7AEFA2020029065
:104180000B4803900120049002A905200007FDF7C9
:10419000A3FA002211460720FDF7F2FC0720FDF7E5
:1041A000E3FC07B000BD0000001002400008005012
:1041B0000000111010B50948094908600320486043
:1041C00008490748C1608160FDF780FB002803D0E3
:1041D000054906A001F066FB10BD0000003000405C
:1041E0007C010020FF0F0000AA0400002E2E2F5398
:1041F00072632F6D61696E2E6300000000B587B099
:1042000026482749086000212548FEF7B3FB2549C9
:10421000884241D00020224948607F2120488160A7
:10422000FF212131C1600021016141618161C161D2
:10423000FEF71CFE002803D01B491CA001F032FB36
:10424000002168460172417281720020059006903B
:10425000002202A91248FEF715FF002804D01249D7
:104260000C3112A001F01EFB012168460171417161
:1042700081710021C171002201A90948FEF76AFE7F
:10428000002804D00849163108A001F00BFB054AAC
:1042900000210348FEF777FB07B000BD002800406F
:1042A0008C010020F2320000C30400002E2E2F5398
:1042B00072632F6D61696E2E6300000010B51B489C
:1042C000406B04210843194948631948194908609B
:1042D00019484860002117488160FF21F531C1600D
:1042E00000210161FEF7CAFF002804D0FF217631CA
:1042F00012A001F0D7FA10480D498862FF20F5306E
:10430000C8620846C068012108430949C8600846D8
:104310000068012108430649086000221146142064
:10432000FDF72EFC142000F08DF810BD00100240A7
:1043300000080140E8010020FF7C00002E2E2F53D2
:1043400072632F6D61696E2E6300000010B5044624
:104350001B48806B01210843194988638804194967
:104360000860194848600021164881601748015DBF
:104370001448C16000210161FEF780FF002804D0CD
:10438000FF215C3112A001F08DFA0F48012189074D
:1043900088620E48005DC8620846C0680121084373
:1043A0008907C8600846006808210843C9060860F4
:1043B00000210F2000F050F80F2000F043F810BD4E
:1043C00000100240B0010020FF7C00009C6000084B
:1043D0002E2E2F5372632F6D61696E2E63000000C5
:1043E00010B5104810490860E120400248600021E3
:1043F0000D488160C16001610C2141610021816132
:10440000C161016200200849486200231A4619462A
:104410000548FEF75FFA002803D0044904A001F024
:1044200041FA10BD0044004050020020F204000098
:104430002E2E2F5372632F6D61696E2E6300000064
:1044400070470000C206D20E01219140014A11605E
:104450007047000000E100E010B5002819DA1A4AA0
:1044600003071B0F083B9B089B00D2588307DC0EF9
:10447000FF23A3409A438B071B0E8407E40EA3403F
:104480001A43114B0407240F083CA408A4001A5136
:1044900018E00E4A03231B02D21883089B00D2584F
:1044A0008307DC0EFF23A3409A438B071B0E840770
:1044B000E40EA3401A43054B032424021B1984086D
:1044C000A4001A5110BD00001CED00E000E100E066
:1044D00010B5002819DA1A4A03071B0F083B9B087E
:1044E0009B00D2588307DC0EFF23A3409A438B071F
:1044F0001B0E8407E40EA3401A43114B0407240F3C
:10450000083CA408A4001A5118E00E4A03231B0219
:10451000D21883089B00D2588307DC0EFF23A340E8
:104520009A438B071B0E8407E40EA3401A43054BE6
:10453000032424021B198408A4001A5110BD000092
:104540001CED00E000E100E07047000010B50146FE
:10455000002300222048C068F0242040002829D1F0
:104560001D48806B012424072040002806D01B48EA
:1045700000680324E4022040034613E01648806BE1
:10458000012424072043144CA0631448006803242A
:10459000E402204003461048806B01242407A04316
:1045A0000D4CA0630320C002834203D1C0008142AE
:1045B00000D101220A480068400840001043084C1E
:1045C000206020460068C007C00F904201D0012043
:1045D00010BD0020FCE70000001002400070004009
:1045E00000200240014600BFF020084000110A23CD
:1045F000584302460807000F8018C0B270470146B2
:10460000002203E0521C08460A38C1B20A29F9D236
:104610001007000E0843704770B504460025206857
:10462000C06840210840002815D1401E2168C8609C
:10463000FDF746F9054608E0FDF742F9401B7D21EC
:10464000C900884201D9032070BD2068C06840219C
:1046500008400028F0D00020F6E7000010B502481E
:10466000FEF77EFB10BD00008C010020704710B5E6
:10467000FDF76AF9FEF7FEFD10BD000030B599B0F8
:104680002D4800680321C90288430121C90240184E
:10469000294908600A200C9001200F9010201090EA
:1046A00001201190022015900021169141041791CC
:1046B000410518910CA8FDF7FDFD002803D01F4906
:1046C0001FA001F0EFF80F200790032008900020B2
:1046D00009900A900B90012107A8FDF753FC0028D0
:1046E00004D016490E3116A001F0DCF8222001900A
:1046F0000020039001204004029001A8FDF73AFB3E
:10470000002804D00D4916310DA001F0CBF8FDF7BB
:1047100035FD05467D21C900FBF7EAFC0446FEF79E
:104720008DFD0420FEF776FD00221146501EFDF798
:1047300027FA19B030BD00000070004044040000AA
:104740002E2E2F5372632F6D61696E2E6300000051
:1047500015480068FF2101310843134908600846E5
:10476000C068124908401049C860084600681049EE
:1047700008400D490860084680684008400088608D
:1047800008460068012189048843074908600846F3
:10479000C068FD21090488430349C86000200861FE
:1047A000C803044988607047001002400C40FF882D
:1047B000F6FFF6FE00ED00E010B55048FEF7A3FD51
:1047C0004F480078002836D04E480078002808D19D
:1047D0000A204D49087000204C4908704C49087067
:1047E00026E048480078102808DB01204649087078
:1047F0000020464908704649087019E04148007891
:10480000022809DB04204049087001203F49087054
:1048100000203F4908700BE03A480078012807D192
:104820000420394908700020384908703849087058
:1048300000203349087036480078401C344908701D
:104840000846007830490978884217DB0122910335
:104850003048FDF72FF82D480078002806D00022B8
:104860002D4801882D48FEF77DF904E000222C49EF
:104870002A48FEF777F9002025490870214800787A
:10488000C007C00F002813D126480088401C2549C6
:1048900008800846008824490988884208DD0120EC
:1048A0001749087017480078012108431549087016
:1048B0001E48007800280DD01D480078401C1C4977
:1048C000087008460078012804DD002017490870A8
:1048D000174908701748007800280DD0164800784E
:1048E000401C1549087008460078092804DD00209E
:1048F000104908701049087010BD0000E801002040
:104900000A0000200B000020080000200C000020FE
:1049100009000020000800506C0000208C010020DD
:10492000C3020000140000201200002089000020B3
:104930008A0000208D0000208B00002010B5054863
:10494000FEF7E1FC04480068044908400249086099
:1049500010BD0000C002002000140140FEFF000056
:1049600070B5012080070068FE49084001218907D1
:104970000860FD48FEF7C7FC0120FC4908700022D2
:10498000FB49FC48FEF73CFA0022FB49F948FEF7D8
:1049900009FAFA480078FA49098B884203D0F748A7
:1049A0000078F7287ED1F7480178F448FBF76EFFCE
:1049B000F5490880084600880028F3D1F3490880AB
:1049C000F3480078C007C00F002808D00120F14943
:1049D0000870EF48007840084000ED490870E7484B
:1049E0004078032804D004287ED006287DD117E122
:1049F000E2480078F72861D1E048807801285DDA44
:104A0000DE48C078DD49097909024018DB49497957
:104A10004018401E1E2851DA0020DF490870D74890
:104A20000078DE49087003204870D4484079400679
:104A3000000E887000241CE0D04880780002CF4926
:104A4000C978401800194000CD49095C6000001D7C
:104A5000D24A1154C94880780002C849C978401820
:104A600000194000C649085A01126000C01C1154C8
:104A7000641CC2484079A042DEDCC8488078C11C72
:104A8000C648FBF703FFC049088008460178C348C1
:104A90008078C01CC14A1154BB48008801121046DE
:104AA000807800E020E2001D115410468078421DFD
:104AB0006423BA49BA48FEF7F8FD20E00120B64960
:104AC0000870AE480078B54908708320487002200D
:104AD00088700321B148FBF7D9FEAB49088008462E
:104AE0000078AE49C87001E00AE0DBE1A648008822
:104AF0000012087164230522A948FEF7D6FDF2E1F1
:104B00009E48807801286CD19C48C0789B490979DF
:104B100009024018994949794018401E082860DA6E
:104B200000209D490870FEF7A9FE944800789B4933
:104B3000087004204870914840794006000E887043
:104B400000242BE08D49897809028C4AD278891893
:104B50000919FF3901394900924A505AC117090E03
:104B6000091809120902411ACAB26100091D8B4BCA
:104B70005A54824989780902804AD27889180919D9
:104B8000FF3901394900874A505AC117090E0918DF
:104B900009040A0E6100C91C5A54641C7748407904
:104BA000A042CFDC7D488078C11C7C48FBF76EFEBC
:104BB000754908800846017878488078C01C774A93
:104BC000115471480088011210468078001D11545C
:104BD00010468078421D642370497148FEF765FDD8
:104BE0001DE001206C490870644800786B4908702A
:104BF000842048700220887003216848FBF746FE35
:104C000061490880084600786449C8705E48008899
:104C100000120871642305226148FEF746FD62E137
:104C20005648807800025549C97840180B284EDD57
:104C30005248807800025149C97840180E2846DA57
:104C40000020554908704D480078544908700620E6
:104C500048704A48807888704848C078C87047488B
:104C60000079087145484079487106214B48FBF7A7
:104C70000DFE454908800846007848498871424839
:104C800000880012C871642308224548FEF70DFD14
:104C90003A48807800023949C978401886B23748C6
:104CA0000079000235494979401885B20D2E08D1A6
:104CB000082D00DD0825E8B200F034FDE8B2FFF76A
:104CC00045FB70002E490D5200F060FDE9E02B48D5
:104CD0000078F72868D12948807800022749C978E8
:104CE0004018032807DD2548807800022349C97849
:104CF0004018152807DB2148807800021F49C97831
:104D000040180028E6D1002023490870FEF7B6FDC0
:104D10001A48007900021949497940181749C97899
:104D20004900174A50521548C078072803D0134845
:104D3000C07809284BD1124880880005000D104921
:104D40004989401A81B20D48C078083040000C4AA9
:104D50001152104640880005000D11460989401A7D
:104D600081B222E0FEFF0000B0010020B700002069
:104D70000C0300208C0100200000002020030020F4
:104D8000840300201C0000200600002014000020E6
:104D90000B0000200A000020040000203403002043
:104DA00050020020D40300205DE06A48C078C01D96
:104DB000400011526748007900026649497940185D
:104DC00081B26448C078401E4000115223E061481F
:104DD000C0780A2808D1604801885E48C078083049
:104DE00040005E4A115216E05A48C07805280BD19F
:104DF0005A4840880005000D5849088108468088B7
:104E00000005000D488106E05248C078002802D114
:104E10005249088148814F4800785149087006205E
:104E200048704C48807888704A48C078C8704948B3
:104E30000079087147484079487106214848FBF7D6
:104E400025FD48490880084600784549887145484D
:104E500000880012C871642308224348FEF725FC2D
:104E600000F094FC1DE001204049087039480078AA
:104E70003B4908708620487002208870032138481A
:104E8000FBF704FD37490880084600783449C870AC
:104E90003448008800120871642305223248FEF766
:104EA00004FC20E00120314908702A4800782C4990
:104EB00008702848407880304870012088700321AD
:104EC0002748FBF7E3FC2749088008460078244977
:104ED000C870244800880012087164230522224803
:104EE000FEF7E3FB00BF00BF2048007820490978A7
:104EF00088421AD01D4800781D4908701B48007868
:104F0000002809D001201B4908701B4800780221A5
:104F100008431949087008E001201649087016482E
:104F20000078022188431449087000201349087052
:104F3000012200211C20FCF723FE1C20FCF714FE9C
:104F4000094800680068202108430749096808608B
:104F500070BD000020030020CC000020840300204E
:104F6000340300200600002050020020040000202E
:104F7000050000200A0000200B0000201C0000207B
:104F800010B50022026801239B07984205D0174BF9
:104F9000984202D0164B984201D1012300E0002331
:104FA000002B05D070241346A3431A464B681A43BE
:104FB00001239B07984205D00C4B984202D00C4B22
:104FC000984201D1012300E00023002B06D00324E6
:104FD00024021346A3431A46CB681A4302608B6827
:104FE000C3620B6883620123436110BD0008014066
:104FF00000140140818CC907C90F002908D001683D
:105000004968012252049143826A11430268516047
:105010000222416A1140002907D001684968D20381
:105020009143C26A1143026851600422416A1140EF
:10503000002907D00168496812049143026B1143AB
:10504000026851600822416A1140002907D00168B6
:10505000496812039143426B114302685160102268
:10506000416A1140002907D0016889681202914302
:10507000826B1143026891602022416A114000292D
:1050800007D00168896812029143C26B114302681C
:1050900091604022416A1140002915D00168496899
:1050A00092039143026C1143026851600122120580
:1050B000016C914208D1016849680322520591436D
:1050C000426C1143026851608022416A11400029FC
:1050D00007D00168496812039143826C114302684A
:1050E0005160704738B5044600250020E066FCF7A3
:1050F000E7FB0546206800680821084008280BD116
:1051000014482B46002289040090204600F09DFAA6
:10511000002801D0032038BD206800680421084021
:1051200004280BD10B482B4600220905009020468D
:1051300000F08BFA002801D00320ECE72021692041
:1051400001556A20015500BF00216820015500BFAC
:105150000020E0E7FFFFFF0170B50546AC6A0021C3
:105160005A200153522001532046FEF78FF970BD9B
:1051700001680968FF2221329143026811600168C9
:105180008968490849000268916020226A210A540E
:10519000704710B5044620680068402188432168A4
:1051A00008602021692001552046FEF7F6FA00200C
:1051B00010BDF8B504465C20075B6A20005D22281C
:1051C00037D12068406A85B201210903A06888426E
:1051D0000AD12069002807D1666D28463840308002
:1051E000606D801C606505E0F8B22840626D511C5E
:1051F000616510705A20005B401E81B25A20015335
:10520000002914D120680068FF21213188432168DA
:10521000086020688068400840002168886020217C
:105220006A2001552046FEF73FFA0020F8BD002015
:10523000FCE7206880690821084321688861022012
:10524000F4E70000F0B587B00446002510260020E2
:10525000059004900390D6492068884201D101202E
:1052600000E00020002800D000E000BF2169A06815
:10527000084361690843E1690843054620680068FE
:10528000CC49084028432168086020684068032111
:1052900009038843E168084321684860A569C44957
:1052A0002068884201D1012000E00020002801D1BF
:1052B000206A0543206880680B210902884328433F
:1052C0002168886000BFBC492068884217D1BB486C
:1052D000C0680C210840002806D0042808D00828FF
:1052E00004D00C2808D105E0002607E0022605E0DE
:1052F000042603E0082601E0102600BF1EE0AC49AA
:10530000206888421AD1AD48C0680321890208404C
:10531000002808D001218902401A08D0401A04D080
:10532000401A08D105E0002607E0022605E0042621
:1053300003E0082601E0102600BF00BF00BF0220E6
:10534000FCF728FC07469A492068884201D10120D1
:1053500000E00020002856D00025042E1AD004DCDE
:10536000002E07D0022E1CD108E0082E16D0102ED9
:1053700017D117E0FCF708FF054616E08F484038C4
:105380000068102108400009002801D08C4D00E081
:105390008C4D0AE0FCF71CFF054606E00125ED03F5
:1053A00003E000BF0120039000BF00BF002D0AD022
:1053B000606841004018A84203D860680003A84212
:1053C00002D201200390EFE0606802902846FF219E
:1053D000013100F080FA62685208002380185941B8
:1053E00001910090029AFAF7ADFE054603200002F3
:1053F000854205D37448854202D82068C560D3E051
:1054000001200390D0E00121C903E069884269D1FD
:10541000042E3DD006DC002E09D0012E11D0022E24
:105420004DD11BE0082E40D0102E48D148E07A0024
:1054300063685B08D0186168FAF75AFE80B204907E
:1054400041E0FCF7B3FE4000616849084018029053
:105450006168FAF74DFE80B2049034E05748403856
:105460000068102108400009002808D061684A0837
:10547000564BD018FAF73CFE80B2049007E0616802
:105480004A08534BD018FAF733FE80B204901AE062
:10549000FCF79EFE40006168490840180290616870
:1054A000FAF726FE80B204900DE061684A080123F5
:1054B0001B04D018FAF71CFE80B2049003E000BF72
:1054C0000120039000BF00BF4249049808400590A6
:1054D00004980007400F0599084305900598216836
:1054E000C86061E0042E42D006DC002E09D0012EF7
:1054F00014D0022E53D11EE0082E45D0102E4ED1CE
:105500004EE0FCF741FE616849084018029061686E
:10551000FAF7EEFD80B22168C86044E0FCF746FE71
:1055200061684908401802906168FAF7E1FD80B2AD
:105530002168C86037E021484038006810210840E1
:105540000009002809D061684A081D4BD018FAF7F5
:10555000CFFD80B22168C86008E061684A08194B35
:10556000D018FAF7C5FD80B22168C8601BE0FCF7CF
:105570002FFE61684908401802906168FAF7B8FD8B
:1055800080B22168C8600EE061684A080123DB032D
:10559000D018FAF7ADFD80B22168C86003E000BF03
:1055A0000120039000BF00BF039807B0F0BD0000CA
:1055B00000480040F369FFEF004400404010024003
:1055C00000093D000024F400FFFF0F0000127A00E4
:1055D0000048E801F0FF000001466920405C2128F6
:1055E00031D15220405A00280DD10868006880232C
:1055F00098430B68186008680068402318430B68DC
:1056000018600020704701231B03886898420CD162
:105610000869002809D1CA6C1088C005C00D0B6844
:105620009862C86C801CC86405E0CB6C581CC864C8
:1056300018780B6898625220405A401E83B252205C
:1056400043520020DEE70220DCE7FFB581B00446CC
:105650000D4617460A9E24E0701C002821D0002E1B
:1056600005D0FCF72DF90499401AB04219D92068E9
:105670000068FF21A13188432168086020688068A4
:1056800040084000216888602021692001556A2077
:10569000015500BF00216820015500BF032005B05F
:1056A000F0BD2068C0692840A84201D1012000E077
:1056B0000020B842D0D00020F1E7000010B5134818
:1056C000C0692021084020281CD1400600681049EC
:1056D0000840012189070860002048620B48406AA1
:1056E0000C490D4A127888540B480078401C0A492E
:1056F00008700120094908708007006801210843EB
:10570000890708600648FDF7C3FE10BD004400404D
:10571000FEFF0000200300201C000020B700002036
:105720005002002010B50446114812490860A0003C
:10573000114908580F49486000210E488160C16036
:1057400001610C21416100218161C1610162002080
:105750000849486200231A4619460648FDF7BAF878
:10576000002804D0FF21AB3104A000F09BF810BD4D
:105770000044004050020020786000082E2E2F5375
:1057800072632F6D61696E2E6300000000B58DB0ED
:10579000002003904148008B00044049498B401889
:1057A00004903E48C08B00043C49C98940180590CC
:1057B0003A48408C00043949498A401806903748D5
:1057C000808C00043549898A401807903348808BC3
:1057D000000432498989401808903048008C000440
:1057E0002E49098A401809902C48008900042B4949
:1057F000498940180A902948C08A0B902748008D93
:1058000000042649C98C40180C90FBF72DFF00209E
:105810000090234801900220029003A96846FBF7FC
:10582000ABFE002801D0FBF7EDFE1D490220049AD3
:10583000FBF7F2FE1A49091D0220059AFBF7ECFE60
:10584000174908310220069AFBF7E6FE14490C318D
:105850000220079AFBF7E0FE114910310220089A56
:10586000FBF7DAFE0E4914310220099AFBF7D4FE49
:105870000B49183102200A9AFBF7CEFE08491C3169
:1058800002200B9AFBF7C8FE0549203102200C9A32
:10589000FBF7C2FEFBF7B6FE0DB000BD840300208F
:1058A0000078000800BFFEE72021020C01D0102183
:1058B0001046020A01D010460839020901D01046EC
:1058C000091F820801D01046891E420801D0881E97
:1058D0007047081A7047F8B582B28BB2040C0D0CF1
:1058E00010465843002126465E43370C3604801983
:1058F000794116466E43370C3604801979412646A5
:105900006E438919F8BD02E008C8121F08C1002AB9
:10591000FAD170477047002001E001C1121F002A30
:10592000FBD17047FCF718F8FEF7A8FEFEF7E4FB82
:10593000FEF7CAFBFEF754FDFEF75AFBFEF75EFCCE
:10594000FEF738FC0020FE49088148810120000351
:10595000C883401CC881401E4884801C4882801E29
:105960008883401C8881401E0884801C0882F720A0
:10597000088308204883F348888488820020C882EE
:105980007D204001C884FA200885EF48FAF7E8FF37
:10599000EE49086008460068002804D00846006800
:1059A000401C002801D1FFF7F1FEE748FAF7D8FFC5
:1059B000E6490860E448001DFAF7D2FFE349486071
:1059C000E1480830FAF7CCFFE0498860DE480C3047
:1059D000FAF7C6FFDD49C860DB481030FAF7C0FFB0
:1059E000DA490861D8481430FAF7BAFFD749486154
:1059F000D5481830FAF7B4FFD4498861D2481C3032
:105A0000FAF7AEFFD149C861CF482030FAF7A8FFB6
:105A1000CE49086208460068000CC9490883CB4893
:105A200000884883C9484068000CC883C7488088FC
:105A3000C881C6488068000C4884C44800894882F0
:105A4000C2488069000C0881C048008B4881BF486B
:105A5000C068000C8884BD4880898882BB48006982
:105A6000000C8883B948008A8881B8484069000CD6
:105A70000884B648808A0882B448808BC882084669
:105A8000808C002804D1B24888848882FFF77EFE8B
:105A900000211C20FEF7E0FC1C20FEF7D3FCAD48E3
:105AA0000068006820210843AA4909680860FEF7D9
:105AB00005FCA349887EFFF735FEA149887EFEF7E5
:105AC00045FC0322A449A548FBF70CFA012200215A
:105AD0000220FCF755F80220FCF746F80022A04906
