:020000040800F2
:1028000060070020D5280008815B00083D550008BE
:1028100000000000000000000000000000000000B8
:10282000000000000000000000000000DF5C000865
:1028300000000000000000000D5C0008E15C0008E2
:10284000E7280008E7280008E7280008E72800082C
:10285000E7280008E7280008E7280008BD3100083D
:10286000000000008D310008E7280008E728000874
:10287000E7280008E728000800000000F15D0008D4
:102880000000000000000000000000000000000048
:10289000E728000800000000D15D0008E7280008D4
:1028A00000000000E7280008000000000000000011
:1028B000F5670008E728000800000000000000009D
:1028C0000348854600F038FB00480047DD690008F2
:1028D000600700200448804704480047FEE7FEE701
:1028E000FEE7FEE7FEE7FEE7895D0008C128000875
:1028F00030B50B46014600202022012409E00D4698
:10290000D5409D4205D31D469540491B254695401F
:1029100040191546521E002DF1DC30BDF0B51FB434
:102920000646002082B005464024019100901BE03D
:10293000019922460F46304600F04CFA049A059B56
:10294000801A994110D310461946224600F032FAF7
:10295000361A8F410197224601200021009F00F086
:1029600029FA38184D4100902046641E0028DFDC0B
:10297000019B00982946324607B0F0BD024670B56B
:102980004A40D30FDB0740002DD04A002AD0010E69
:10299000140E000212020919400A520A8418E501B5
:1029A00004465443000A120A2E045043A419421943
:1029B000200CC543AA18120C0125AD03521C521954
:1029C00012047F39240400D0521C104301D440006B
:1029D000491EC2B20C06C0092018401C4008802ABB
:1029E00002D003E0002070BD40084000002900DA5A
:1029F0000020184370BD70B502464A40D50F400014
:102A00004A00ED0740085208002814D0002A12D0CE
:102A1000C40DD30D41020120C0055202490A520AD9
:102A2000E41A091812187D34914201D3641C00E0A5
:102A30004900002C01DA002070BD0023914201D32F
:102A4000891A0343400849000028F7D100290AD019
:102A5000914202D10121C90705E0914201D2012131
:102A600001E00121C943E005C018401900F0C3F995
:102A700070BD0000F0B51FB488B00B990998002410
:102A800048400999C00F490049080991C0070B99AE
:102A90000090490049080B9109990898A6460843F7
:102AA0001CD00B990A98084318D0099801244000BB
:102AB000420D4800410D099824050003000B2043F6
:102AC00009900B980003000B20430B9050181C49F1
:102AD0004018002201901446104605E000200146EF
:102AE0000DB0F0BD032801DA034600E003239C4645
:102AF000C11A0AAE0AE05F0008ADED5B4F00F75B5C
:102B00007D430027AA187C41491C5B1E6145F2DD0C
:102B1000410004AB5A522104120C0A43240C401CFD
:102B20000828DFDB0198029000997046019100901F
:102B3000059B049A0799069800F0ABF9D0E70000CE
:102B40000DFCFFFFF0B50C465C4085B0E40FE407D8
:102B500003944C0000266408590094464908024634
:102B60000296224321D062460A431ED06200570DCE
:102B70004A000E032303550D012402462C49240567
:102B8000781B1B0B360B40182343264361460090ED
:102B90001C46501AB44103D30098401C009002E038
:102BA000921800985B41002803DA0020014605B026
:102BB000F0BD0020012109050746864611E0644664
:102BC0001D46141BB54106D36546521BB3417446DE
:102BD00007430C43A646CD074008490828439218EE
:102BE0005B4105460D43EAD11046184313D06046B9
:102BF000194650407140084306D06046101AB34150
:102C000006D20122002306E000220123DB0702E0B6
:102C10000122D2435310009874460105381C6141CB
:102C2000029C039D0019694100F026F9BFE70000EE
:102C3000FD03000010B500229623114600F0E3F8D2
:102C400010BD00000EB5C217C10F5040CA07401892
:102C50000021054B0293019200910A460B4600F0B9
:102C600018F903B000BD0000330400000EB505499B
:102C70000291002100910A460B46019100F009F9EA
:102C800003B000BD33040000C20F41004002012325
:102C9000400ADB05D207090EC0187F2901DA00209F
:102CA0007047962903DC9623591AC84001E09639EB
:102CB0008840002AF4D0404270474100400201227F
:102CC000400AD205090E80187F2901DA00207047DA
:102CD000962903DC9622511AC840704796398840DD
:102CE0007047000070B5CD0F4A0009030123090B9E
:102CF0001B0519430B4BED070024520D9A4201DAD4
:102D0000002070BD074B34339A4203DC9A1A00F05E
:102D100061F802E00449511888402C43F1D0404248
:102D200070BD0000FF030000CDFBFFFFC20FD20704
:102D3000400040080BD0C10D0723DB01C918400239
:102D40000905400A1143C20840071143704700209B
:102D50000146704710B5002904DB0124E407404216
:102D60008C412146002B04DB1C460123DB07524229
:102D7000A3418B4200D1824210BD0000CB0FDB0784
:102D8000490010B5490802460A4307D00A0D072436
:102D90000903E401090B121B002A01DC002010BD0D
:102DA000C900440F0C43C100E018D205801800F0A0
:102DB00022F810BD10B5202A04DB0146203A9140CC
:102DC000002010BD914020239C1A0346E340194384
:102DD000904010BD10B5202A04DB0846203AD040B0
:102DE000002110BD0B46D340D0402024A21A9140B0
:102DF0000843194610BD002904DA401C490001D1DE
:102E000040084000704770B40024050C05D1102420
:102E1000000402D1002921D01124050E01D10002A5
:102E20000834050F01D10001241D850F01D1800058
:102E3000A41C002801DB4000641C002908D02025C8
:102E40002E1B0D46F540A14000D001212943084327
:102E500001061B1B000ADB1D02D5002070BC704759
:102E6000DB05181880180029F8DA401C4900F5D154
:102E700070BC40084000704710B5002B08DA0024F1
:102E8000401C614192185B411A4301D14008400047
:102E900010BDF0B51FB482B005460C0003D0084643
:102EA00003F069FD02E003F066FD20300246009069
:102EB00021462846FFF77EFF049B059A04460F46ED
:102EC00018431143084314D0184610431BD00098F0
:102ED00040210A1A18460599FFF77CFF05460E4661
:102EE000009A05990498FFF765FF084305D0012073
:102EF00004E02046394607B0F0BD0020C117054365
:102F00000E432C43374300990E986305401A790508
:102F1000E40A00220C43FD0A0A3002D500200146D3
:102F2000E9E70105101969410C9C0D9D00196941E3
:102F3000FFF7A2FFDFE70000064C0125064E05E083
:102F4000E36807CC2B430C3C98471034B442F7D3CA
:102F5000FFF7BAFC1C7000083C70000870B504460E
:102F600000688168490720D5816810264907002933
:102F700005DA8168890702D481683143816001F0F4
:102F800071F905460DE001F06DF9401B0A2808D9DA
:102F9000A06D3043A065E06D01210843E06508465F
:102FA00070BD206880684007EDD4002070BD10B56A
:102FB0000146806A826D50231A420AD1816D012236
:102FC0005202114381650168CA681205920F05D04B
:102FD00020E0006D426B0846904710BD026A002A4F
:102FE00018D10A68120715D58A6853070122002BE9
:102FF00009DB4B680C24A3434B60816D130299439A
:103000001143816506E0816D202319438165C16DFF
:103010001143C16500F0E0F910BD10B5806A816D03
:10302000402211438165C16D04221143C16500F046
:103030002FFA10BD10B5806A00F0CFF910BD000066
:1030400038B50446064805490068FFF751FC60435F
:1030500000E0401E00900028FBD138BD40420F0028
:1030600064000020F8B50446006881688907890F6C
:10307000012925D10168C90722D0816805221140A4
:103080001025012601290FD1816802221143816098
:1030900021680320086001F0E5F807460CE001F024
:1030A000E1F8C01B0A2807D9A06D2843A065E06D90
:1030B0003043E0650120F8BD20688068C007EED18C
:1030C0000020F8BDF8B50446006881688907890FBB
:1030D000012902D10168C90722D18168114A10264D
:1030E0001140012500290ED181682943816001200A
:1030F000FFF7A6FF01F0B6F807460CE001F0B2F8C2
:10310000C01B0A2807D9A06D3043A065E06D284395
:10311000E0650120F8BD20680068C043C007EDD11C
:103120000020F8BD17000080000901060207090F02
:103130000A23120F594300058918000F64225043D7
:10314000081870477EB5FF226B461A701A710E4C34
:103150000022E51DF9350FE06B46865C1B795E4069
:1031600002966B46A65D1B785E406B461E71029B05
:10317000EE5C6B461E70521C491EEDD26946087803
:103180000979000208437EBD486D000810B5024869
:1031900000F0A8FC10BD00000803002010B5046872
:1031A00063608368102B036803D099600068C26075
:1031B00010BD9A600068C16010BD000010B52020ED
:1031C00000F08AFF0348016B642901D90121C17213
:1031D00010BD0000000000201FB50024039400F083
:1031E000F1FE0848019002200290009403A968466D
:1031F00000F084FE002801D000F0BCFE00F0BAFE12
:103200001FBD0000007F000810B5084900224A6178
:1032100007494B684C1523434B604B6808242343F4
:103220004B60C009C001026010BD000048030020CF
:103230000020024010B5214A00219069C3052048B2
:1032400004D54169022319434161911593699B0596
:1032500005D54369012423434361630219439369FC
:103260005B0505D54369082423434361E301194302
:1032700093691B0505D54369042423434361630215
:10328000194393699B0405D5436910242343436183
:103290006302194393699B0304D5446920231C43AB
:1032A000446119439369DB0305D5436940242343F3
:1032B0004361A0020143916110BD00000020024063
:1032C0004803002070B5054600F0CCFF0646184CB8
:1032D0000AE0681C08D0002D04D000F0C3FF801B5A
:1032E000A84201D9032070BDA069C007F1D1A0692F
:1032F000800701D50220A061A069C00511D4A06992
:1033000080050ED4A06940050BD4A069000508D43F
:10331000A069800405D4A069800302D4A069C00319
:1033200003D5FFF787FF012070BD002070BD0000AE
:1033300000200240012181F310884168006880F379
:1033400008880847F8B506460D464036317D012904
:103350000DD00121317501688A68520709D5816D48
:10336000202211438165002030750120F8BD022024
:10337000F8BD174B6A68D80547109A42154C8A6AFF
:103380002B6812D05B035B0B1A438A6229684903DE
:1033900005D5A1680143A1600A20FFF751FE286806
:1033A000800312D5A06838430EE05B035B0B9A43A1
:1033B0008A622968490302D5A1688143A16028680F
:1033C000800302D5A068B843A06000203075F8BD26
:1033D00001100000002701407047704770B50400DD
:1033E00043D0A06D02210843A0652046FFF7B6FD3B
:1033F0000026054600283AD0012D32D020684168C9
:103400001F4A114041602168D043086020688168EC
:1034100001221207914381602068C168194A114056
:10342000C16020680169184A114001612068416942
:10343000C908C90041612068016A144A114001624B
:1034400020688030416BC909C90141632068803020
:10345000416BC909C9014163204600F0FDF8E665EA
:10346000A66540342675284670BD012070BD2046F3
:10347000FFF7F8FD05460128F3D00120A065BDE760
:1034800060F7FFFF00023E8302FCFF3F00F000F008
:103490007047000070B5040006D0A06D26460025D8
:1034A0004036002802D006E0012070BDE565357584
:1034B000204600F0E9F8A06DC00603D421688868B2
:1034C000400705D5A06D10210843A0653575EBE7D1
:1034D000A06DFF220132904302221043A06588684C
:1034E0008207920F5A48012A02D10A68D2072BD1CB
:1034F000032362689B079A4205D05B429A4202D03E
:103500005B009A4209D10A69920092080A61216817
:103510000A6963681A430A610CE00A69920092081A
:103520000A6181680F229204914381608168626818
:10353000114381602168CA6818239A43CA602168D0
:10354000CA68A3681A43CA6081680122520691437F
:1035500081608168228F52061143816020688168F2
:10356000C90004D4816801221207114381602068D8
:10357000C168384A1140C1602169E068022923D03E
:1035800000210843216A226B49035200114308437A
:10359000616B0843A16989030843E169C9030843D2
:1035A0002168CA681043C860A06A0146FF39C23961
:1035B00005D0E16A08432168CA681043C860606AA0
:1035C0000121012802D00BE00421DAE7206A00285B
:1035D00023D0A06D20221043A065E06D0843E06574
:1035E000206C012820681FD00169C90703D0016938
:1035F00049084900016120684169C908C900416161
:1036000020684169E26B11434161E565A06D800866
:103610008000401CA065002070BD2068C2680123A6
:103620001B041A43C260DBE70269FF239B009A4335
:10363000026120680269636CE66C1A43A36C334331
:103640001A430261206802690A430261D3E700005D
:10365000002701401902FEFF10B504460068084922
:1036600088420CD10748416B4215914341630520C4
:10367000C021000700F0C4FC206D00F049F910BD26
:10368000002401400010024070B50546006818494A
:1036900086B088422AD11748416B421511434163D5
:1036A000C020009003200190002605206946029664
:1036B000000700F01DFD1048104C41C4266080201A
:1036C0006660A0604000E0608000206120206061B2
:1036D000C001A0610948083C00F044FB002803D069
:1036E0006B2107A003F046F92C65A56206B070BDFA
:1036F000002401400010024008000240080300209E
:103700002E2E2F5372632F73746D33326C30787892
:103710005F68616C5F6D73702E630000F7B50446DF
:1037200000680025806840073DD426464036307D3D
:1037300001280AD001273775E069012807D0204603
:10374000FFF7C0FC050002D02EE00220FEBDA06DF8
:1037500016490840FF2101310843A0650020E065BB
:103760003075216D1248C862216D12480863216DC1
:103770001148486321681C200860206841681022B5
:10378000114341602068C1683943C1602168206DE0
:103790004031029B019A00F069FB20688168042295
:1037A0001143816000E002252846FEBDFEF1FFFFC7
:1037B000AF2F0008353000081B300008F8B506466A
:1037C00004464036307D012807D001273775204652
:1037D000FFF7C4FB050002D024E00220F8BD2068FA
:1037E000C16849084900C160206D00F01FF805005C
:1037F00003D0A06D40210843A065206841681022D5
:1038000091434160002D204602D0FFF72BFC09E0D8
:10381000FFF728FC050005D1A06DFF210131884389
:103820003843A065002030752846F8BDF8B5044639
:103830000068016849084900016000F013FD002795
:103840002546064620350EE000F00CFD811B7D204C
:10385000C000814207D9E06B20210843E0632F714B
:1038600003206871F8BD20680068C007ECD12F7193
:10387000012068710020F8BD70B500240246203296
:103880005179022903D00421C16301243CE001687D
:103890000B680E25AB430B6001680B685B085B008F
:1038A0000B601A4B0168994201D1012121E0174BAD
:1038B0001433994201D110211BE0144B2833994253
:1038C00001D1891515E0114B3C33994201D189147E
:1038D0000FE00E4B5033994202D10121090408E058
:1038E0000A4B6433994202D10121090501E001210B
:1038F0000906064B083B59600121517100211171E5
:10390000816B002900D08847204670BD0800024026
:10391000F0B5002821D0014620318C464979022992
:103920001BD001680A68520852000A600268002130
:10393000116002685160026891600268D160684C51
:10394000674D674E664F664A0168143428353C3629
:103950005037914203D101231DE00120F0BDA14267
:1039600001D1102317E0A94202D1FF23013312E055
:10397000B14202D101231B030DE0B94202D1012360
:103980001B0408E0564B6433994202D101231B0506
:1039900001E001231B06524908394B60016891423E
:1039A00001D102231BE0A14201D1202317E0A9424B
:1039B00002D101235B0212E0B14202D101235B0379
:1039C0000DE0B94202D101235B0408E0444B6433AB
:1039D000994202D101235B0501E001235B064049C6
:1039E00008394B600168914201D108231BE0A142D4
:1039F00001D1802317E0A94202D10123DB0212E0AA
:103A0000B14202D10123DB030DE0B94202D101230F
:103A1000DB0408E0324B6433994202D10123DB0519
:103A200001E00123DB062E4908394B600168914211
:103A300001D104231BE0A14201D1402317E0A94298
:103A400002D101239B0212E0B14202D101239B0368
:103A50000DE0B94202D101239B0408E0204B6433FE
:103A6000994202D101239B0501E001239B061C49D9
:103A700008394B601A4903687831934203D18A6A46
:103A80001209120124E0A34202D18A6AF0231EE047
:103A9000AB4203D18A6A0F231B0218E0B34203D161
:103AA0008A6A0F231B0312E0BB4203D18A6A0F23E9
:103AB0001B040CE00A4A6432934203D18A6A0F2342
:103AC0001B0504E08B4204D18A6A0F231B069A432C
:103AD0008A620021C1636046417101710846F0BDF0
:103AE00008000240F8B504469D4801689C4A9C4E77
:103AF0009B4F0832206813041C363037904201D1A6
:103B000008221EE0B04201D180221AE0B84202D160
:103B10000122D20215E0924A4432904202D101229F
:103B2000D2030EE08E4A5832904201D11A4608E084
:103B30008B4A6C32904202D10122D20501E001226F
:103B4000D20625461140203500293BD001680907DF
:103B500038D5016808229143016081492068083105
:103B6000884201D108201EE0B04201D180201AE035
:103B7000B84202D10120C00215E07949443188429F
:103B800002D10120C0030EE075495831884201D1AD
:103B9000184608E072496C31884202D10120C00504
:103BA00001E00120C0066E494860E06B0121084336
:103BB000E0630420687100202871616B002901D046
:103BC0002046884766480168654A20680832131510
:103BD000904201D104221EE0B04201D140221AE0FD
:103BE000B84201D11A4616E05D4A4432904202D1F1
:103BF000012292030FE05A4A5832904202D1012228
:103C0000920408E0564A6C32904202D10122920599
:103C100001E001229206114238D00168490735D5EA
:103C20000168890603D4026804218A4302604C4972
:103C300020680831884201D104201EE0B04201D141
:103C400040201AE0B84201D1184616E044494431F8
:103C5000884202D1012080030FE041495831884257
:103C600002D10120800408E03D496C31884202D134
:103C70000120800501E001208006394948600520C7
:103C80006871216B002901D02046884734480168BB
:103C9000334A206808325315904201D102221EE0B7
:103CA000B04201D120221AE0B84201D11A4616E0F2
:103CB0002B4A4432904202D1012252030FE0284A9B
:103CC0005832904202D10122520408E0244A6C3258
:103CD000904202D10122520501E001225206114216
:103CE0003CD00168890739D50168890603D4016889
:103CF0000222914301601A4920680831884201D1AB
:103D000002201EE0B04201D120201AE0B84201D1C9
:103D1000184616E012494431884202D1012040037E
:103D20000FE00F495831884202D10120400408E0D9
:103D30000B496C31884202D10120400501E001208D
:103D4000400607494860E06BE0630120687100208D
:103D50002871E16A002901D020468847F8BD00009B
:103D60000000024070B5002805D003462033597981
:103D7000002902D003E0012070BD00211971022149
:103D80005971046822683749C5680A4081684669E4
:103D9000294305693543294385692943C569294371
:103DA000056A2943114321602F492F4C026878315D
:103DB000A24206D18A6A120912018A628A6A40689E
:103DC00049E0294C1434A24207D18A6AF024A24364
:103DD0008A628A6A406800013DE0234C2834A2428E
:103DE00008D18A6A0F242402A2438A628A6A406840
:103DF000000230E01C4C3C34A24208D18A6A0F24F5
:103E00002403A2438A628A6A4068000323E0164CB6
:103E10005034A24208D18A6A0F242404A2438A6241
:103E20008A6A8088000416E00F4C6434A24208D1EC
:103E30008A6A0F242405A2438A628A6A8088000560
:103E400009E08A4209D18A6A0F242406A2438A62C1
:103E50008A6A0079000602438A62012058710020B4
:103E600070BD00000FC0FFFF08000240F8B5044617
:103E700020300579012D1ED00125057102264671DD
:103E800020680768AF4307602046FFF787F920687E
:103E90000168314301602068016804221143016018
:103EA00020680168082211430160206801682943E5
:103EB00001600020F8BD0220F8BD000010B500210F
:103EC0000748C94381620022826241624262016204
:103ED0000262C161C26100F031FA002010BD000031
:103EE0000010024031B500F0BDF9044600F0BAF907
:103EF0000099001B8842F9D338BD0000F8B51A4E6E
:103F00000546307C0F46012807D001203074174841
:103F1000FFF7D8F9010002D021E00220F8BD00200F
:103F2000C04338606C6814E02046FFF76DF90F4815
:103F3000FFF7C8F901460E48426808239A434260D9
:103F4000426843159A434260002901D03C6006E074
:103F50008034A8686A68C0018018A042E4D80020B4
:103F600030740846F8BD00004803002050C300002C
:103F700000200240034841680222114341600020B2
:103F80007047000000200240F8B50C4C1646207C1B
:103F90000F46012808D0012020740948FFF792F944
:103FA0000025002802D006E00220F8BD65613E60D1
:103FB0000348FFF787F92574F8BD00004803002087
:103FC00050C300000948416889070CD54168C907FA
:103FD00003D00749C1600749C1600749016107492A
:103FE000016100207047012070470000002002405E
:103FF000EFCDAB8905040302BFAE9D8C16151413DB
:10400000F0B5002358E001249C4022460A4052D0DB
:1040100006685F000325BD402E43AC460660DD0800
:10402000AD002D182E6AAE465D07EF0E0F25BD4080
:10403000AE4375462E6286686546AE438660456827
:10404000A5434560C4686546AC43C4609D081C4CEC
:10405000AD002D19AF689C07260F0F24B440A4466D
:104060003C4005273F07B84201D100270FE0154F1C
:10407000B84201D101270AE0134FB84201D102270B
:1040800005E0124FB84201D1052700E00627B740EE
:10409000A74210D1AE686446A643AE600C4C2568BA
:1040A00095432560656895436560A5689543A5605F
:1040B000E5689543E5605B1C0A46DA40A3D1F0BD94
:1040C000000001400004005000080050001C005097
:1040D000000401407047000010B504494A690242DB
:1040E00002D04861FFF7F6FF10BD00000004014058
:1040F000F8B5002301249DE027469F403A4070D048
:104100004D68022D01D0122D14D1DD08AD002D18FF
:1041100000952D6A5E07AC46F50E0F26AE46AE4002
:104120006546B543AC460E697546AE4065462E43BE
:10413000009D2E624D68012D05D0022D03D0112D5A
:1041400001D0122D16D185680326AC465D00AE461F
:10415000AE406546B543AC46CE687546AE40654652
:104160002E43866046680D79BE43ED06ED0F9D40F7
:104170003543456006685F000325BD40AE46AE434B
:104180000D79B446AE07B60FBE4065462E430660B5
:10419000C6687546AE438D68BD403543C5604D6801
:1041A000ED0046D5264D6E6B26436E639E08254D69
:1041B000B6007519AC46AD689E07360F0F27B7409D
:1041C000BD4305273F07B84201D1002710E01E4F2D
:1041D000B84201D101270BE01C4FB84202D102279F
:1041E00006E026E01A4FB84201D1052700E0062775
:1041F000B7402F436546AF60164D2E684F68964313
:10420000FF0300D516432E606E684F689643BF03C8
:1042100000D516436E60AE684F689643FF0200D526
:104220001643AE60EE684F689643BF0200D5164352
:10423000EE605B1C0A681546DD4000D05CE7F8BD07
:10424000001002400000014000040050000800502F
:10425000001C005000040140002A01D08161704719
:1042600081627047014800687047000060000020CC
:1042700070B504000FD02168134808602168134806
:10428000086003CC41602068083C21688860FFF723
:10429000E9FF054608E0012070BDFFF7E3FF401B82
:1042A000302801D9032070BD2068C0680028F4D1EF
:1042B00020680269E1688A4201D0016101E0044995
:1042C0000160002070BD0000CCCC000055550000FE
:1042D000AAAA00000068024901600020704700009F
:1042E000AAAA000002480168491C0160704700004A
:1042F0006000002010B506480168402211430160AB
:10430000002000F007F800F01BF8002010BD0000AE
:104310000020024010B5044607487D21C90000680E
:10432000FEF7E6FA00F068FE00222146501E00F07B
:1043300037F8002010BD0000640000207047000026
:1043400010B50C48416B012211434163816B02049B
:104350001143816300221146501F00F021F8002212
:104360001146901E00F01CF800221146501E00F06D
:1043700017F810BD00100240C106C90E0120884088
:10438000014908607047000080E100E0C106C90EE5
:1043900001208840014908607047000000E100E00A
:1043A00010B501F011FC10BDF8B53A4903460124DF
:1043B0000020E403364D374A4031022B31D0042B24
:1043C00049D0082B56D0202B0BD10B690969032546
:1043D0002D0429406700A600B94203D199052CE0BD
:1043E0002046F8BDB14203D19907FAD52A48F8BD55
:1043F000A942FCD111688903F9D511680320000591
:10440000014001200005091A09D0091A05D081428E
:1044100001D12248F8BD2248F8BD2248F8BD224803
:10442000F8BDCB680C2633400AD0082B0BD0042BE8
:104430000ED00C2BF4D1096989050029D0DBF8BD19
:1044400000F0CCF9F8BD11684907FBD52846F8BD46
:1044500000F0E4F9F8BDCB680326B6023340EFD094
:104460000127FF02BB42EED07A109342F0D0B34254
:10447000E1D0F8BDC96803231B031940E0D0012433
:1044800064036310A142DED09942E1D0F8BD000080
:104490000024F400001002408890000020A10700D2
:1044A00000093D0040420F0080841E00F8B504461C
:1044B00000784F4D800672D54D4E0027403EB06BC0
:1044C000C00004D4B06BA9050843B0630127494874
:1044D0000168C90511D40168821511430160FFF715
:1044E000C1FE009005E0FFF7BDFE0099401A642868
:1044F00037D840480068C005F5D532680321090562
:1045000060680A400140914208D08103890F032965
:1045100004D13168890301D50120F8BD2A6903213E
:1045200009040A4022D0084090421FD0207880061B
:104530001CD528692A6988430121C9040A432A61D4
:104540002A698A432A612861C0050FD5FFF78AFED0
:10455000009008E0FFF786FE0099411A2648814244
:1045600001D90320F8BD28698005F3D56168880367
:10457000800F032805D132680005824301400A43B9
:1045800032602869032261681204114008432861DF
:10459000002F04D0B16B012000078143B163207864
:1045A000800705D5E8680C218843A1680843E860C6
:1045B0002078400706D5E868032189028843E1682E
:1045C0000843E8602078000706D5E868032109035E
:1045D000884321690843E8602078000606D5E8682A
:1045E00003218904884361690843E8600020F8BD1D
:1045F000401002400070004088130000F8B50546E6
:1046000053480E460068C007C00FB0420AD2504857
:10461000016849084900314301600068C007C00FC4
:10462000B0426FD128784B4C800705D5E068F02167
:104630008843A9680843E0602878C00752D06868BA
:10464000022817D0032818D02168012818D089051E
:10465000002957DAE168890889000143E160FFF722
:1046600001FE69680746022912D003291CD00129DE
:1046700026D033E021688903EAE721688901E7E76A
:104680004907E5E7FFF7EEFDC11B3348814223D818
:10469000E0680007800F0228F4D123E0FFF7E2FD75
:1046A000C11B2D48814217D8E0680007800F0328FE
:1046B000F4D117E0FFF7D6FDC11B274881420BD884
:1046C000E0680007800F0128F4D10BE0FFF7CAFD76
:1046D000C11B2148814201D90320F8BDE0680007D1
:1046E000800FF3D11A480168C907C90FB1420BD92D
:1046F000016849084900314301600068C007C00FE4
:10470000B04201D00120F8BD2878400706D5E06806
:10471000072109028843E9680843E0602878000718
:1047200007D5E0680721C90288432969C900084301
:10473000E06000F073F8E168084A0906090F515C6F
:10474000C840074908600020FFF7E4FD0020F8BDDD
:10475000002002400010024088130000F86F00089B
:104760006400002008B515480168821511430160F6
:10477000C16889088900C1600168114A114001605F
:1047800001680122120411400091016892009143D6
:1047900001600021C16042680A4B1A4005235B0397
:1047A000D218426042681F231B029A438314D21816
:1047B0004260016105490448086008BD00100240DC
:1047C000D4FFF6FEFF1FFF0068FF1F0064000020FB
:1047D0000148006870470000640000200448054953
:1047E0000068C968044A4905490F515CC8407047D0
:1047F00064000020001002401170000804480549C0
:104800000068C968044A8904490F515CC840704770
:1048100064000020001002401170000810B5184A12
:10482000D1680C20084004280BD0082810D00C2890
:1048300010D050680004410F0120C003491C88407B
:1048400010BD1068C00601D50E4810BD0E4810BD41
:104850000E4810BD88020E4B000F185C0902D36889
:10486000890F491CDB0301D5084A05E01268D2060E
:1048700001D5044A00E0044A5043FEF739F810BD60
:104880000010024000093D000024F40000127A00EC
:1048900008700008F8B504460078F24DC0074AD009
:1048A000E8680007800F022807D0E8680007800F3B
:1048B000032809D1E868C00306D5286880033AD5E3
:1048C0006068002873D036E00120626800048242EC
:1048D00003D129680143296011E0052301211B044C
:1048E00089049A422A6802D10A432A60F1E7824386
:1048F0002A602A680240009228688843286060681D
:1049000000280CD0FFF7AEFC064604E0FFF7AAFC37
:10491000801B64287ED828688003F7D50BE0FFF75A
:10492000A1FC064604E0FFF79DFC801B6428F1D83B
:1049300028688003F7D42078800741D5E8681F27CE
:104940000007800F3F02012807D0E8680007800FAA
:10495000032809D1E868C00306D42868400717D5A2
:10496000E068012823D113E0E068002817D0296807
:104970000922914301432960FFF774FC064604E0D5
:10498000FFF770FC801B0228C4D828684007F7D5C1
:1049900068682169B84309020843686010E0286824
:1049A000400840002860FFF75DFC064605E090E007
:1049B000FFF758FC801B0228ACD828684007F7D4C2
:1049C0002078C00676D5E868A74E0007800F0BD088
:1049D000A06900285DD02868FF21013108432860C4
:1049E000FFF740FC074644E02868800502D5A0692F
:1049F00000286ED0206A69683140884212D901F0DF
:104A000007F90028AED16868216AB043084368609E
:104A1000686800E0BBE00002217F000A0906084345
:104A200068600FE06968B143014369606868217F8D
:104A30000002000A090608436860206A01F0E8F8ED
:104A400000288FD1206A410B0120C003491C8840F7
:104A5000E96809060A0F8549895CC84084490860ED
:104A60000020FFF757FC25E0FFF7FCFBC01B0228E6
:104A70008AD828688005F7D56868216AB04308435A
:104A800068606868217F0002000A090608436860C0
:104A900010E02968FF20013081432960FFF7E2FB25
:104AA000064604E0FFF7DEFB801B02286FD828686B
:104AB0008005F7D420786F4E000723D56069002861
:104AC000306910D0012108433061FFF7CBFB074666
:104AD00005E0C5E0FFF7C6FBC01B022857D83069C8
:104AE0008007F7D50EE0400840003061FFF7BAFBC1
:104AF000074604E0FFF7B6FBC01B022847D8306921
:104B00008007F7D42078400762D5A86B0027C00043
:104B100005D4A86B012109070843A863012756485B
:104B20000168C90511D40168821511430160FFF7BE
:104B300099FB009005E0FFF795FB0099401A642867
:104B400025D84D480068C005F5D5FF20A268013082
:104B5000824203D131690143316111E001218902AF
:104B6000002A07D005231B029A4203D132690A4367
:104B70003261EFE7326982433261306988433061E4
:104B8000A06800280FD0FFF76DFB009007E060E001
:104B9000FFF768FB0099411A3848814259D83069BB
:104BA0008005F5D50DE0FFF75DFB009006E0FFF70F
:104BB00059FB0099411A314881424AD83069800531
:104BC000F5D4002F04D0A96B012000078143A9630D
:104BD000606A002842D0E9680907890F03293FD09D
:104BE000012636060228286805D0B0432860FFF762
:104BF00039FB04462FE0B0432860FFF733FB07463C
:104C000004E0FFF72FFBC01B022822D82868800190
:104C1000F7D4E16AA06AEA680843216BFD231B040C
:104C20009A4311430843E860286830432860FFF73F
:104C300019FB044604E0FFF715FB001B022808D807
:104C400028688001F7D509E0FFF70CFB001B02285C
:104C500001D90320F8BD28688001F5D40020F8BDF3
:104C60000120F8BD0010024000E00000F86F0008CD
:104C700064000020401002400070004088130000D3
:104C8000FFB581B016460F46040005D025466035B5
:104C9000687A002803D007E0012005B0F0BD0020AD
:104CA0002872204600F0BAFB242068722068016850
:104CB000490849000160606A002802D0204601F0DE
:104CC0004BFB204601F036FC0128E6D020688168C5
:104CD0000122920311438160206881685200914350
:104CE0003943816004987105000422680843116803
:104CF000064B1940014311602068016801221143ED
:104D00000160204601F08EFBC7E70000FFFF00FCBA
:104D100000688900503008180068704700688900F2
:104D2000503008180260704770B5040005D0254661
:104D300020356878002802D006E0012070BD0020F0
:104D40002870204600F042F8022068702168CA20CE
:104D50004862216853204862204600F0A4FFFF21EA
:104D60000028206803D0416204206870E5E782686B
:104D7000154B1A408260226890686368A6691843E0
:104D800023693343184390602268E068106120680B
:104D9000026923891B041A4302612068C2688023C8
:104DA0009A43C2602068C26C92089200C264E269B1
:104DB000606902432068C36C1A43C2642068416280
:104DC00001206870002070BDBFFF8FFF006805499B
:104DD000884205D10448016901229204114301610E
:104DE000704700000028004040100240F8B505461A
:104DF0000446203528780B46012815D0012028705C
:104E0000022068705878002A10D000F039FF987896
:104E100000F036FFD8789E78000406435878197859
:104E200000024903084316E00220F8BDC10603D57D
:104E3000EF2108400A305870D87800F029FF0604A6
:104E4000587800F025FF00020643987800F020FF14
:104E500006431878400306432168CA204862216847
:104E600053204862204600F01EFF0027002811D181
:104E700010480640206846602068C168802291433F
:104E8000C1602068806880060CD4204600F08CF851
:104E9000002807D02168FF204862042068702F7026
:104EA0000120F8BD2168FF204862012068702F7042
:104EB0000020F8BD3FFFFF00F8B506460446203647
:104EC00030780D4601280ED001203070022070701D
:104ED000206800278068002A07D040061AD5287865
:104EE00000F0CEFE17E00220F8BD400600D4EF70BF
:104EF000287800F0CDFE0204687800F0C9FE0002B8
:104F00000243A87800F0C4FE0243E878000402439C
:104F100000920BE0EF702978A878090408436978BB
:104F2000EA78090212041143084300902168CA205C
:104F30004862216853204862204600F0B4FE0028F1
:104F40001FD11849009808402168086020688168CE
:104F500001229204914381602969E868084321682D
:104F60008A68104388602068C16880229143C160CC
:104F70002068806880060CD4204600F015F80028D0
:104F800007D02168FF20486204207070377001202C
:104F9000F8BD2168FF204862012070703770002042
:104FA000F8BD00007F7F7F0070B504460068C168CF
:104FB000A0229143C160FFF755F97D260546F60012
:104FC00006E0FFF74FF9401BB04201D9032070BD46
:104FD0002068C0688006F4D5002070BD0422044912
:104FE0000428086902D09043086170471043FBE72A
:104FF00000E000E070470000094910B5401E8842FB
:1050000001D9012010BD074C60610321081F00F089
:10501000DBFD0020A06107202061002010BD000002
:10502000FFFFFF0000E000E010B5FFF7E3FF10BD59
:1050300010B5022104462034617501680A6A064BE6
:105040001A4203D10A68520852000A6000F020F8A0
:1050500000206075207510BD1111000070B50400AE
:1050600005D025462035687D002802D006E00120C5
:1050700070BD00202875204600F02AF802206875CF
:10508000211D206801F040F901206875002070BDE5
:105090000122016892070B48914204D1816B4908B3
:1050A000490081637047084A914202D1416B042252
:1050B00004E0064A9142F5D1416B202291434163BD
:1050C0007047000000100240000801400014014039
:1050D0000122016892070B48914204D1816B0122A1
:1050E000114381637047084A914202D1416B042207
:1050F00004E0064A9142F5D1416B202211434163FD
:1051000070470000001002400008014000140140F8
:105110000168CA6852085200CA600068016A044AFD
:10512000114203D10168490849000160002070471D
:1051300011110000704770B5044600680169002530
:10514000C9438907002915DBC168C943890711D400
:10515000E91E0161012020752068806980072046D2
:1051600002D0FFF7E7FF04E000F078F8204600F0F7
:1051700076F8257520680169C943490717D4C168C5
:10518000C943490713D40421C94301610220207592
:10519000206880698005800F204602D0FFF7CAFF93
:1051A00004E000F05BF8204600F059F8257520680F
:1051B0000169C943090716D4C168C943090712D454
:1051C0000821C9430161042020752068C069800757
:1051D000204602D0FFF7AEFF04E000F03FF8204683
:1051E00000F03DF8257520680169C943C90617D448
:1051F000C168C943C90613D41021C94301610820FD
:1052000020752068C0698005800F204602D0FFF716
:1052100091FF04E000F022F8204600F020F8257508
:1052200020680169C943C90708D1C168C943C907D2
:1052300004D1891E0161204600F012F8206801693E
:10524000C943490609D4C168C943490605D4402168
:10525000C9430161204600F004F870BD70477047F3
:1052600070477047704770B5040019D0242120465C
:1052700060300646417220680168490849000160B3
:10528000206800250560206845602068856020460C
:1052900000F0ACF8E5667572B5723572002070BD2D
:1052A000012070BD70470000F8B502680446D0695F
:1052B00011680607360F07D1830605D58B0603D57F
:1052C000204601F0F8F8F8BD95682023002E65D03F
:1052D000EE07F60FFF2721370F4037435ED0C70791
:1052E00006D0CF0504D501271762E26E3A43E26685
:1052F000820708D5EA0706D0276802223A62E26EE2
:1053000004273A43E266420708D5EA0706D0256833
:1053100004222A62E26E02252A43E266020709D5C8
:105320000A461A40324305D0236808221A62E36E07
:105330001343E366E26E002AC5D0800604D58806D2
:1053400002D5204601F0B7F8E06E000703D42068CC
:10535000806840061CD5204601F09EF820688168D0
:10536000490611D5826840218A438260606E002818
:105370000AD01D498163606EFEF77EFA0028A2D034
:10538000606E816B8847F8BD2046FFF78BFFF8BD44
:105390002046FFF787FF0020E066F8BD2646C702DB
:1053A0006036002F0ADA6D0208D501200005106270
:1053B0007372B3722046FFF755FFF8BD050605D599
:1053C0000D0603D5204601F0B1F9F8BD4006FCD525
:1053D0004806FAD52046146840218C431460737245
:1053E00000F0ABF8F8BD00008564000810B5006857
:1053F000084988420DD10848816B0122520491432B
:10540000816305200E210007FEF7FAFD1C20FEF740
:10541000B3FF10BD004400400010024000B500681A
:10542000114985B088421CD11048816B0122520479
:10543000114381630E200090022001900020029011
:105440000320039004200490052069460007FEF71E
:105450004FFE002211461C20FEF7A2FF1C20FEF783
:1054600095FF05B000BD0000004400400010024060
:105470007047FFB5064604466036707A83B00D4625
:10548000202858D1002D0CD00598002809D00120E3
:10549000A1680003814207D12069002804D1E807F0
:1054A00002D0012007B0F0BD307A012843D001209E
:1054B00030720020E06621207072FEF7D3FE01906A
:1054C00027464037059838820598788218E0788A10
:1054D000401E788206980090002280212046019B81
:1054E00001F057F9002818D10120A168000381427A
:1054F00002D12069002812D02168287888626D1CAA
:10550000788A0028E3D106980090002240212046A6
:10551000019B01F03EF9002808D00320C2E728884B
:105520002168C005C00D8862AD1CE9E720207072BB
:1055300000203072B6E70220B4E77047FEE70000B3
:10554000F8B500240F4D04E00A21FDF7D1F9641CE1
:10555000E4B2A842F8D887B20A213846FDF7C8F964
:105560000E460A21FDF7C4F90D4664213846FDF7C1
:10557000BFF900032902401831014018001980B218
:10558000F8BD0000E7030000024A9070917100200E
:10559000D07070470000002000B5002804D0002122
:1055A0000120FFF7F1FF00BD00210A20F9E700000C
:1055B000F0B5A74C87B0A08BA44D060B0005000DDD
:1055C000A0832989401AFDF73DFB0022E1641346C0
:1055D000A064FDF7BFFB02D20020A064E0643000AD
:1055E0009C4E9D4F0AD0288A3080688A708030682F
:1055F000FDF763FB80B20090288C09E0A889308019
:10560000E88970803068FDF758FB80B20090A88B65
:10561000FDF710FB02900098FDF70CFB0190E16C88
:10562000A06CFDF7ABFB0199FDF7A8F90299FDF716
:10563000E2F97860FDF77AFB0022884BFDF71AFA51
:10564000FDF750FB0390607A002836D02889E18C62
:10565000081AFDF7F7FA0022616513462065FDF789
:1056600079FB02D2002020656065207A00280AD0EC
:10567000288A3080688A70803068FDF71EFB80B20F
:105680000190288C09E0A8893080E8897080306812
:10569000FDF713FB80B20190A88BFDF7CBFA0290C7
:1056A0000198FDF7C7FA0190616D206DFDF766FB6B
:1056B0000199FDF763F902992AE06889218D081A9A
:1056C000FDF7C0FA0022616513462065FDF742FB35
:1056D00002D2002020656065207A00287ED0288ACA
:1056E0003080688A70803068FDF7E7FA80B20190F8
:1056F000688CFDF79FFA00900198FDF79BFA0290E5
:10570000616D206DFDF73AFB0299FDF737F90099BD
:10571000FDF771F93860FDF709FB00224F4BFDF7EB
:10572000A9F9FDF7DFFAFFF70BFF4B492039088095
:105730000398FFF705FF484920394880E06B0028AF
:1057400067D008460088002863D0A88AFDF7ECFCE3
:105750002084287D0007000FE073A88CFDF7E4FC8F
:1057600060840390A88C05072D0F2574E06BFDF76E
:1057700061FAFDF7DBFA02460B4600203849FDF7D7
:10578000E1F9FDF7AFFA80B2E08306900398FDF7E8
:1057900051FA0190208CFDF74DFA0199FDF72BF994
:1057A000FDF7C4FA049003912E48E90041180CC992
:1057B000E17BC900411803C9FDF7C4F902900D4609
:1057C0000698FDF753FA2B46029AFDF753F9039B0F
:1057D000049AFDF74FF9FDF7D1FA00E00EE0B8604A
:1057E000FDF752FA05460698FFF7AAFEE083284621
:1057F000FFF7A6FE1849203988800FE0A88930807D
:10580000E88970803068FDF758FA80B20190E88B23
:1058100043E71149002020398880B860386830603B
:105820000D48318810380180718841807968316075
:10583000318881807188C180B96831603188018187
:10584000718841810020A08307B0F0BD780200205C
:105850000000002044000020D402002000408F40BF
:10586000D76D7541786F00081CB520481E4901604E
:105870000021012292070164426081600722C26315
:1058800001220261C1604162FF23C233026283626E
:105890000263C16241638161042281634261C1612B
:1058A000FDF7F8FD002800D0FEE7114800908001C8
:1058B000019069460D48FDF745FD002800D0FEE740
:1058C0000C48009069460948FDF73CFD002800D0CF
:1058D000FEE70948009069460448FDF733FD0028BB
:1058E00000D0FEE71CBD000000240140680000203D
:1058F000400000188000001C00000244F0B5214860
:1059000087B0C26A04210A43C262C26A0A40059291
:10591000C16A01242143C162C06A1B4E2040A50315
:105920000590002229463046FEF796FC05273F07E2
:10593000002210213846FEF78FFC009500250194C7
:105940000295694630460395FEF7D2FB1020694662
:1059500031C1694638460395FEF7CAFB2020009006
:105960000A480190694602943846FEF7C1FB0022BE
:1059700011460720FEF714FD0720FEF707FD07B0CC
:10598000F0BD00000010024000080050000021108F
:1059900070B5204C86B01E48206000212046FFF7DD
:1059A000B7F91D4EB04231D000257F206560A06060
:1059B00025616561FF20A5612130E561E060204639
:1059C000FFF7B2F9002800D0FEE768460570457081
:1059D00085700395002269460E480495FFF76CFA1E
:1059E000002800D0FEE701206946087548758875D3
:1059F000CD75002205A90748FFF7F8F9002800D067
:105A0000FEE7324600210348FFF788F906B070BD73
:105A100000280040D8000020F2320000F8B505460A
:105A20001448816B012211438163840412480022CF
:105A3000124F8260124E90C0715D001D06C0143876
:105A4000FFF70CFB002800D0FEE7A762705DE06264
:105A5000E16801200143E1602068082108432060DB
:105A600000210F2000F08EF801200649C0030860D5
:105A7000F8BD000000100240FC000020FF7C000088
:105A80006C6F000800E100E010B50D480B490160A3
:105A9000E1214902416000218160C16001618161B1
:105AA000C1610C22016242610B4641620A46FFF766
:105AB000E7F8002800D0FEE710BD000000440040D9
:105AC0006C01002010B52848407C00284AD02748A7
:105AD000FDF774FE25489430FFF71AFB2348CC30BD
:105AE000FFF716FB2248FFF713FB0F20FEF744FCDD
:105AF0001420FEF741FC1620FEF73EFC1C20FEF7AA
:105B00003BFC0420FEF738FC0920FEF735FC05209D
:105B1000FF210007FEF774FAFF211648FEF770FA1E
:105B2000FF211548FEF76CFA10489430FFF780FA11
:105B30000F48A838FFF77CFA0D48FFF779FA0B48B1
:105B4000FDF74CFC0A487038FFF78DFBFEF70AFEA4
:105B5000FEF7B4F90948016B490849000163C00325
:105B6000FDF7E8FB10BD00000000002068000020E9
:105B7000DC0100200004005000080050001002402A
:105B8000704700008307FF22DB0E9A408907090E49
:105B9000994000280BDA0007000F083883080848EE
:105BA0009B001818C36993430B43C3617047830874
:105BB00004489B001B1818689043084318607047FE
:105BC00000ED00E000E400E08307FF22DB0E9A40D6
:105BD0008907090E994000280BDA0007000F0838E2
:105BE000830808489B001818C36993430B43C3619B
:105BF0007047830804489B001B18186890430843AB
:105C00001860704700ED00E000E400E0704700001D
:105C100070B517490023CA681206120F18D18A6B93
:105C2000154CD500134A02D51268224009E08E6B4C
:105C300001252D072E438E6312688E6B2240AE43E2
:105C40008E63A24204D103218903884200D101233B
:105C50000A48016849084900194301600068C00703
:105C6000C00F984201D0012070BD002070BD00001F
:105C700000100240007000400018000000200240A8
:105C800001090A2200075143000F4018C0B27047B3
:105C9000002102E00A38C0B2491C0A28FAD20907DA
:105CA000090E0843704770B504460068C16849068C
:105CB00013D40021C943C160FEF7D4FA7D260546FE
:105CC000F60006E0FEF7CEFA401BB04201D90320F1
:105CD00070BD2068C0684006F4D5002070BD7047D4
:105CE00010B5FEF7FFFAFFF79FF910BD10B5254874
:105CF00098B001680322D2029143C214891801604E
:105D00000A200090102004900220099040040121F4
:105D10000B900001059100240C9003910A946846B1
:105D2000FEF7B8FD002800D0FEE70F200D900320FD
:105D30000E900F941094012111940DA8FEF75EFCB3
:105D4000002800D0FEE7222012900120400413908A
:105D5000149412A8FEF7AAFB002800D0FEE7FEF775
:105D600037FD7D21C900FCF7C3FDFFF745F904208D
:105D7000FFF734F900221146501EFEF711FB18B050
:105D800010BD0000007000400E48016882151143EC
:105D90000160C1680C4A1140C16001680B4A1140A2
:105DA000016081684908490081600168012292040C
:105DB00091430160C168FD2212049143C16000213A
:105DC00001617047001002400C40FF88F6FFF6FEAC
:105DD00010B50448FFF7AFF903480168034A1140C2
:105DE000016010BDDC01002000140140FEFF000036
:105DF000FEB5012080070168FB4A11400160FB48A5
:105E0000FFF799F9FB4EFA4D01272F7331466431A4
:105E10003078098B884201D0F7287BD1E97CF5489E
:105E2000FDF790F90004000CA884F6D1012291033B
:105E3000F148FEF711FA002028836879C00704D0E2
:105E40002F716879400840006871EA4C707814340A
:105E500006286ED004DC03280DD0042804D16EE09F
:105E6000102867D0452870D02F703178217080308D
:105E70006070A770B6E1DF480078F72804D0DD49EC
:105E8000897800292CD056E0DA4B997801910029C5
:105E900051D1D9785A791B798C461B028E185B1E1A
:105EA000F1181E291CDA002129702070032060706F
:105EB0005000A0700846CF4E019964360902019146
:105EC0000BE0019B61461B18C9184B00F15A4300B7
:105ED0001B191971090AD970401C8242F1DC8FE04C
:105EE000C449CB784A7909799C4609029E180C3935
:105EF0007318032B1FDA00232B7020700320BD4979
:105F000060705000A0700E46897864360902184609
:105F100001910BE0CFE10199430009186144490068
:105F2000715A1B191971090AD970401C8242F2DC9E
:105F300066E06EE039E12F70207083204FE1B07889
:105F4000012803D002282FD05EE086E1F078717935
:105F5000401831790902491E4018082854DA0020F7
:105F60002870FFF725FB307820700420607072796C
:105F70005000A070B178002009028C46F67810E03D
:105F800061460B18F31859009A4BA033CB18FF3B0E
:105F9000FF3B023B198843001B191971090AD9708C
:105FA000401C8242ECDC2BE0F078717940183179AA
:105FB0000902491E4018082826DA00202870FFF739
:105FC000F7FA307820700420607072795000A07069
:105FD000B37800201B029C46F6780FE063461B183E
:105FE000F3185900834BB033CB1884495B181988D8
:105FF00043001B191971090AD970401C8242EDDC5B
:10600000A078C01CC6B231E12F7030782070842097
:10601000E5E0B278F07811020B460C3BC318022B76
:106020001ED200232B703378237006236370A27076
:10603000E07032792271737908181102C9186371FE
:10604000062680B289B200910D2804D1082901D911
:1060500008210091EF714200664864308152F9E0F6
:106060003378F72B26D10E1F8619112E02D3614EDD
:10607000C14219D100262E70FFF79AFA5D480179C6
:1060800001910A0241798C465318C17864304A0064
:10609000835207290FD009290DD00A2919D00529C3
:1060A0001CD0002922D024E0002A2FD0552A4FD01E
:1060B000FF2A61D069E0838846891B051B0D9B1B65
:1060C00012181382438800891B051B0D181AD081F2
:1060D0000FE0484AE88B643290840AE04288120557
:1060E000120D028182881205120D01E032460681EE
:1060F0004281404802782270062262708078A07047
:10610000E1700198207160466071A2E050283CD196
:106110003179502902D0A0290DD036E07679502E61
:1061200033D1237006236370A270E0702171667111
:106130001E46AF739AE07679A02E26D123700623EF
:106140006370A270E070217166711E4600208CE0C1
:1061500055281AD131798C46552916D17679552E84
:1061600013D1237006216170A270E0706046207127
:1061700066710E466F7479E0FF2806D131798C463E
:10618000FF2902D17679FF2E03D02F70237086204D
:1061900025E0237006216170A270E07060462071D6
:1061A00066710E46FDF718F860E03278F72A13D1D1
:1061B000B178029100290FD1F178062901D0082980
:1061C0000AD133799C46002B06D173790193022BB7
:1061D00002D1B379042B13D02F70227090206070FD
:1061E0000220A070032641E0FEFF0000FC0000201A
:1061F00000000020140200200008005000FCFFFFF7
:10620000227060700298A070E17060462071019861
:1062100060713A484E00828843891205120DD21AE5
:1062200031184A82428803891205120DD21A0A8255
:106230000246643AD27913020246643A127A9A18F4
:1062400082536438407A02022C486438807A1018ED
:106250004880062600F016FB08E031782170607057
:10626000B0780326A070F72900D1A87323483146DF
:106270005038FCF767FFA884A055000AA1194870A0
:106280001E49642350390846B21CBC38FFF7F1F8A8
:106290000121002289031A48FDF7DEFFE879002872
:1062A00009D00020E8710098C0B200F0C9FA009847
:1062B000C0B2FFF7B3FB2878697888420CD0287801
:1062C000687028782F710028687902D0022108436D
:1062D00001E0FD21084068710020E87401460122B8
:1062E0001C20FEF75DF81C20FEF750F805480068FA
:1062F0000168202211430160FEBD000078020020E9
:10630000000800506C01002070B5026801239B0753
:106310000F4C104D984203D0A04201D0A84203D1A7
:106320007026B2434E683243984203D0A04201D057
:10633000A84204D103231B029A43CB681A4302608C
:106340008A68C262096881620121416170BD0000F2
:10635000000801400014014010B5818CC90707D026
:1063600001684A6801235B049A43836A1A434A60BE
:10637000818C890707D501684A6801231B049A4369
:10638000C36A1A434A60818C490707D501684A6885
:1063900001239B049A43036B1A434A60818C0907CB
:1063A00007D501684A680123DB039A43436B1A430C
:1063B0004A60818CC90607D50268916801231B03D6
:1063C0009943836B19439160818C890607D50168D5
:1063D0008A6801235B039A43C36B1A438A60818CEA
:1063E000490612D503685A6801210905046C8A43DD
:1063F00022435A60026C8A4207D102685168032323
:106400005B059943436C19435160818C090607D59C
:1064100001684A680123DB04806C9A4302434A60A6
:1064200010BD0000F8B500260446C666FDF71AFF49
:10643000054620680068124F000709D501212B4648
:10644000002249052046009700F0A3F900280DD14D
:106450002068006840070BD501212B4600228905E2
:106460002046009700F095F9002801D00320F8BDE0
:10647000202060346072A07226720020F8BD0000F7
:10648000FFFFFF0110B5806A0022014640314A83B8
:106490004A82FEF707FF10BD01680A68FF23213317
:1064A0009A430A6001688A68520852008A60202173
:1064B00060308172704770B50246403201466031EB
:1064C000938B8D7A0C460168222D05D088690822AD
:1064D00010438861022070BD496A01268568360331
:1064E00089B2B54202D10569002D0BD01940436D28
:1064F0005D1C45651970518B491E0904090C5183B7
:1065000007D015E0456D19402980416D891C416512
:10651000F1E701680A68FF2321339A430A600168A2
:106520008A68520852008A602021A172FEF7A0FFFB
:10653000002070BDFEB50446016880682269E369E9
:1065400010436269102700261A4310430A68354633
:106550006D4B1A4002430A60216848680322120307
:106560009043E26810434860684A2168A0699142FC
:1065700001D0226A10438A680B231B029A4302430C
:106580008A60634A2068634990420AD1C8680C2136
:1065900008402BD004282DD0082829D00C2810D151
:1065A0000EE05A4A90420CD1C96803208002014093
:1065B0001CD01015091A1DD0091A19D0814200D11A
:1065C00008270220FDF7F0FE0190504B5149226848
:1065D0004039D81300929A4235D1002F0CD0022FA7
:1065E0000DD0042F12D0082F1CD113E00027E8E7AC
:1065F0000227E6E70427E4E7FEF7F0F808E008687A
:10660000C00601D5444805E0444803E0FEF706F91A
:10661000002873D0626851005118814202D81103DA
:10662000814201D2012569E0010E060250080023D3
:1066300030185941FCF772F903210902384A411A0E
:10664000914259D9EEE7E26982422DD13B0000F038
:10665000A9F90906080B24192424241F24000198F1
:1066600012E0FEF7CBF80FE008686168C00602D5BB
:1066700048082C4A01E02C4A48088018FCF738F9F1
:1066800086B20BE0FEF7CAF8616840004A08F4E7FA
:106690006168012248081204EFE701253109090168
:1066A0003007400F084327E03B0000F07BF9090763
:1066B0000A0D061D060606290600B3E7FEF78EF84A
:1066C00014E0FEF79BF811E008686168C00602D587
:1066D0004A08114801E011484A081018FCF708F967
:1066E00081B20098C16009E0FEF798F861684A0835
:1066F0008018FCF7FDF880B22168C8602846FEBD0E
:1067000061684A08E9E70000F369FFEF00480040CC
:10671000004400404010024000093D000024F40005
:10672000FFFC0F0000127A000048E8016921095CB3
:10673000212901D00220704702464032518A0029A7
:1067400012D0012381681B03994202D101690029FB
:1067500015D0C16C4B1CC364006809788162508AF3
:10676000401E50820020704701680A6880239A43C7
:106770000A6000680168402211430160F2E7C16CC1
:1067800003680988C905C90D9962C16C891CC16477
:10679000E5E7FFB581B017460E4604460A9D1DE0A9
:1067A000681C1BD0002D05D0FDF75CFD0499401A34
:1067B000A84213D920680168FF22A13291430160E9
:1067C0002068816849084900816020206034607237
:1067D000A07200202072032005B0F0BD2068C169BE
:1067E0003046884304D00020B842D9D00020F3E7D7
:1067F0000120F9E710B50E49C869800613D50805D0
:1068000002680C4B1A400260002242624A6A0B493D
:10681000094BCC7C1A55CA7C521CCA7401220A73DB
:106820000168114301600448A838FEF73DFD10BD22
:1068300000440040FEFF0000140200200000002081
:1068400010B50E490C4A0A600D4A80001058486085
:1068500000208860C86008618861C8610C220862F5
:106860004A6148620346024601460448FEF708FAB8
:10687000002800D0FEE710BD004400406C0100205D
:10688000486F0008F0B58DB000200C903748018BA0
:10689000428B090489180091C18BC28909048C18A4
:1068A000418C428A09048D18818C828A09048918D6
:1068B0000891818B828909048E18018C028A09044F
:1068C0008F1801894289090489180A91C18A0591A2
:1068D000018DC08C090408180B90FDF773FB002094
:1068E000019023480290022003900CA901A8FDF713
:1068F00005FB002801D0FDF73DFB1D490220009A51
:10690000FDF742FB1A492246091D0220FDF73CFB18
:1069100017492A4608310220FDF736FB14490220A8
:106920000C31089AFDF730FB114932461031022034
:10693000FDF72AFB0E493A4614310220FDF724FBED
:106940000B49022018310A9AFDF71EFB0849022064
:106950001C31059AFDF718FB0549022020310B9ADE
:10696000FDF712FBFDF706FB0DB0F0BD780200202D
:10697000007F0008FEE72021020C01D01021104604
:10698000020A01D010460839020901D01046091F39
:10699000820801D01046891E420801D0881E704727
:1069A000081A704730B47446641E2578641CAB42E4
:1069B00000D21D46635D5B00E31830BC184702E05F
:1069C00008C8121F08C1002AFAD17047704700207A
:1069D00001E001C1121F002AFBD1704708B5012058
:1069E00080F31088CB49CA488860002080F3108863
:1069F000FDF780FCFFF77AF9FEF780FFC648016BD0
:106A0000012421430163006B0022204000902146B5
:106A10000920FDF7C5FCFFF737F8FEF725FFFEF765
:106A2000B7FFBF48BD49016003214160BD49C16056
:106A30008160FDF71DFC002800D0FEE7BA48012167
:106A400000220903028142814B1CC183C38141841E
:106A50008D1C45828183838101840582012101830C
:106A600002214183B149818481827D21C282490111
:106A7000C184FA21AE4D01852868AB4C6834206092
:106A8000002801D0401C01D1FFF7FCFE2E68A84869
:106A90002660001D0568001D65600768001DA76071
:106AA0000368BC46001DE3600268001D22610168A6
:106AB000001D616100689E4FA0611C373F68E7615F
:106AC000BE469B4F20373F682762974C370C278381
:106AD00066832E0CE683E58167463D0C65846782FC
:106AE000050C25816081180CA084A382130CA3835C
:106AF000A2810A0C228421827746E782002804D1F1
:106B00008C48A084A082FFF7BDFE00211C20FFF767
:106B100039F801278849380708608148A43000689F
:106B20000168202211430160A07EFFF789FEA07E4C
:106B3000FEF774FF7A48032280496038FCF7EEFDC7
:106B4000012200210220FDF72BFC0220FDF71EFC94
:106B50007A4D0220583DA8704B200001E8820026A3
:106B60006E716879FEF718FDEE726D48FDF7B2FBA5
:106B7000FEF7A8FF286B7149401C28638A88EA85C4
:106B80004A886A850988A985E97A002969D0EE7260
:106B9000297B002903D02E732E636F7361E068494F
:106BA00088420CD26863296C491C2964810840081A
:106BB00040182E63A8630220FDF794F951E0208D60
:106BC000A98A884210D9287A00280DD0A87A0028EE
:106BD0000AD1A87B002807D1052000221021000738
:106BE000FDF73AFB2E726F72AB8D2B85687B844666
:106BF00000280CD1A380A88A6080297A002906D0B9
:106C000001211A4609030A43A28008436080608874
:106C1000A98B884200D9A883688B834200D96B83F3
:106C20004049A88A491EE884884204D92F716879AE
:106C30001021084306E06879C00604D52F716879F1
:106C4000EF21084068716046AE82002801D06E7363
:106C500002E0286BE863E080A88B0F2800D2EE6387
:106C60002E63688DA98A884200D9A882E18C81426E
:106C700002D3A87B00280BD0287A002808D1052051
:106C8000012210210007FDF7E7FA2F726F72AF7231
:106C90002C48296B814200D867E72249A88A491EFF
:106CA000884204D92F7169791022114306E069796D
:106CB000C90604D52F716979EF2211406971218DC0
:106CC000814210D9287A00280DD0A87A00280AD14C
:106CD000A87B002807D10520002210210007FDF71E
:106CE000BBFA2E726F72A88DA080A98A61802A7A61
:106CF000002A05D0012212031043A08011436180B5
:106D0000AE822E63EE632E85EE846E83AE832CE717
:106D10000028000800ED00E00010024000300040B4
:106D2000C8000020FF0F0000780200200150000082
:106D3000007F0008411F000000E100E05800002033
:106D4000DC0500003075000000C1814001C08041B9
:106D500001C0804100C1814001C0804100C181402B
:106D600000C1814001C0804101C0804100C181401B
:106D700000C1814001C0804100C1814001C080410B
:106D800001C0804100C1814001C0804100C18140FB
:106D900000C1814001C0804100C1814001C08041EB
:106DA00001C0804100C1814000C1814001C08041DB
:106DB00001C0804100C1814001C0804100C18140CB
:106DC00000C1814001C0804101C0804100C18140BB
:106DD00000C1814001C0804100C1814001C08041AB
:106DE00001C0804100C1814000C1814001C080419B
:106DF00001C0804100C1814001C0804100C181408B
:106E000000C1814001C0804100C1814001C080417A
:106E100001C0804100C1814001C0804100C181406A
:106E200000C1814001C0804101C0804100C181405A
:106E300000C1814001C0804100C1814001C080414A
:106E400001C0804100C1814000C0C101C30302C232
:106E5000C60607C705C5C404CC0C0DCD0FCFCE0E9A
:106E60000ACACB0BC90908C8D81819D91BDBDA1A0A
:106E70001EDEDF1FDD1D1CDC14D4D515D71716D67A
:106E8000D21213D311D1D010F03031F133F3F232EA
:106E900036F6F737F53534F43CFCFD3DFF3F3EFE5A
:106EA000FA3A3BFB39F9F83828E8E929EB2B2AEACA
:106EB000EE2E2FEF2DEDEC2CE42425E527E7E6263A
:106EC00022E2E323E12120E0A06061A163A3A262AA
:106ED00066A6A767A56564A46CACAD6DAF6F6EAE1A
:106EE000AA6A6BAB69A9A86878B8B979BB7B7ABA8A
:106EF000BE7E7FBF7DBDBC7CB47475B577B7B676FA
:106F000072B2B373B17170B0509091519353529269
:106F100096565797559594549C5C5D9D5F9F9E5ED9
:106F20005A9A9B5B99595898884849894B8B8A4A49
:106F30004E8E8F4F8D4D4C8C4484854587474686B9
:106F4000824243834181804060090000C0120000FA
:106F50008025000040380000004B00000096000033
:106F6000C0DA000000E1000000C201000F080403C5
:106F70000202020202000000000000000000F03FD8
:106F80000000000000002440000000000000594004
:106F90000000000000408F40000000000088C34057
:106FA00000000000006AF8400000000080842E41CC
:106FB00000000000D01263410000000084D7974118
:106FC0000000000065CDCD41000000205FA002421E
:106FD000000000E876483742000000A2941A6D4293
:106FE000000040E59C30A2420000901EC4BCD64286
:106FF00000003426F56B0C43000000000000000088
:107000000102030406070809030406080C101820EF
:107010003000000000010203040000003C70000882
:107020000000002068000000BE690008A47000088D
:1070300068000020F8060000CE690008000000008B
:10704000000000000000000101010000000000003D
:107050000000000000000000000000000000000030
:107060000000000000000000000000000000000020
:1070700060EA0000983A00000000000000000000F4
:107080000000000000000000000000000000000000
:1070900000000000000000000000000000000000F0
:0470A00080841E00CA
:04000005080028C106
:00000001FF
